:100000000C9408090C9429090C9429090C942909C9
:100010000C9429090C9429090C9429090C94290998
:100020000C9429090C9429090C9429090C94290988
:100030000C9429090C9429090C9429090C94290978
:100040000C9429090C9429090C9429090C94290968
:100050000C9429090C9429090C9429090C94050B7A
:100060000C9429090C9429090C9429090C94290948
:100070000C9429090C9429090C9429090C94290938
:100080000C9429090C9429090C9429090C94290928
:100090000C9429090C9429090C9429090C94290918
:1000A0000C9429090C9429090C9429090C94290908
:1000B0000C9429090C9429090C9429090C942909F8
:1000C0000C9429090C9429090C9429090C942909E8
:1000D0000C9429090C9429090C9429090C942909D8
:1000E0000C9429091C0C1F0C0E0C120C180C560C2D
:1000F000230C270C2D0C310C350C3B0C3F0C430C06
:10010000560C490C4D0C510C3800440054005C0056
:10011000580040003C00000010002800440044004B
:100120007C00440044000000780044004400780053
:1001300044004400780000003800440040004000C3
:1001400040004400380000007800440044004400AF
:1001500044004400780000007C004000400078002B
:10016000400040007C0000007C004000400078001F
:1001700040004000400000003C00400040004000C3
:100180004C0044003C0000004400440044007C005B
:10019000440044004400000038001000100010002B
:1001A00010001000380000000400040004000400E7
:1001B0000400440038000000440048005000600083
:1001C0005000480044000000400040004000400053
:1001D000400040007C00000044006C0054005400CB
:1001E0004400440044000000440044006400540003
:1001F0004C00440044000000380044004400440027
:1002000044004400380000007800440044007800B6
:10021000400040004000000038004400440044001A
:100220005400480034000000780044004400780086
:1002300050004800440000003800440040003800EE
:1002400004004400380000007C0010001000100082
:10025000100010001000000044004400440044005E
:1002600044004400380000004400440044004400BE
:1002700044002800100000004400440044005400E2
:1002800054006C00440000004400440028001000AA
:1002900028004400440000004400440028001000EE
:1002A00010001000100000007C0004000800100086
:1002B000200040007C0000007C00600060006000C6
:1002C000600060007C000000000040002000100082
:1002D00008000400000000007C000C000C000C0072
:1002E0000C000C007C000000000000001000280042
:1002F00044000000000000000000000000000000BA
:10030000000000007C000000000000000000000071
:10031000000000000000000010001000100010009D
:100320001000000010000000280028002800000035
:100330000000000000000000280028007C002800C9
:100340007C0028002800000010003C00500038000D
:100350001400780010000000600064000800100025
:1003600020004C000C000000200050005000200035
:10037000540048003400000010001000100000007D
:1003800000000000000000001000200040004000BD
:1003900040002000100000001000080004000400CD
:1003A0000400080010000000100054003800100085
:1003B00038005400100000000000100010007C0005
:1003C000100010000000000000000000000000000D
:1003D00010001000200000000000000000007C0061
:1003E000000000000000000000000000000000000D
:1003F00000000000100000000000040008001000D1
:100400002000400000000000380044004C00540070
:10041000640044003800000010003000100010009C
:1004200010001000380000003800440004001800DC
:10043000200040007C0000007C0004000800180040
:10044000040044003800000008001800280048009C
:100450007C000800080000007C00400078000400D8
:1004600004004400380000001C0020004000780018
:1004700044004400380000007C0004000800100024
:100480002000200020000000380044004400380014
:1004900044004400380000003800440044003C00A0
:1004A00004000800700000000000000010000000C0
:1004B000100000000000000000000000100000001C
:1004C0001000100020000000080010002000400074
:1004D0002000100008000000000000007C00000068
:1004E0007C00000000000000200010000800040054
:1004F0000800100020000000380044000800100030
:1005000010000000100000000000000000000000CB
:100510000000000000000000F000F000F00000000B
:1005200000000000000000000F000F000F0000009E
:100530000000000000000000FF00FF00FF000000BE
:100540000000000000000000000000000000F000BB
:10055000F000000000000000F000F000F000F000EB
:10056000F0000000000000000F000F000F00F0007E
:10057000F000000000000000FF00FF00FF00F0009E
:10058000F0000000000000000000000000000F006C
:100590000F00000000000000F000F000F0000F006D
:1005A0000F000000000000000F000F000F000F0000
:1005B0000F00000000000000FF00FF00FF000F0020
:1005C0000F00000000000000000000000000FF001D
:1005D000FF00000000000000F000F000F000FF004D
:1005E000FF000000000000000F000F000F00FF00E0
:1005F000FF00000000000000FF00FF00FF00FF0000
:10060000FF000000000000000000000000000000EB
:100610000000F000F000F000F000F000F00000003A
:100620000000F000F000F0000F000F000F000000CD
:100630000000F000F000F000FF00FF00FF000000ED
:100640000000F000F000F000000000000000F000EA
:10065000F000F000F000F000F000F000F000F0001A
:10066000F000F000F000F0000F000F000F00F000AD
:10067000F000F000F000F000FF00FF00FF00F000CD
:10068000F000F000F000F0000000000000000F009B
:100690000F00F000F000F000F000F000F0000F009C
:1006A0000F00F000F000F0000F000F000F000F002F
:1006B0000F00F000F000F000FF00FF00FF000F004F
:1006C0000F00F000F000F000000000000000FF004C
:1006D000FF00F000F000F000F000F000F000FF007C
:1006E000FF00F000F000F0000F000F000F00FF000F
:1006F000FF00F000F000F000FF00FF00FF00FF002F
:10070000FF00F000F000F00000000000000000001A
:1007100000000F000F000F00F000F000F0000000DC
:1007200000000F000F000F000F000F000F0000006F
:1007300000000F000F000F00FF00FF00FF0000008F
:1007400000000F000F000F00000000000000F0008C
:10075000F0000F000F000F00F000F000F000F000BC
:10076000F0000F000F000F000F000F000F00F0004F
:10077000F0000F000F000F00FF00FF00FF00F0006F
:10078000F0000F000F000F000000000000000F003D
:100790000F000F000F000F00F000F000F0000F003E
:1007A0000F000F000F000F000F000F000F000F00D1
:1007B0000F000F000F000F00FF00FF00FF000F00F1
:1007C0000F000F000F000F00000000000000FF00EE
:1007D000FF000F000F000F00F000F000F000FF001E
:1007E000FF000F000F000F000F000F000F00FF00B1
:1007F000FF000F000F000F00FF00FF00FF00FF00D1
:10080000FF000F000F000F000000000000000000BC
:100810000000FF00FF00FF00F000F000F00000000B
:100820000000FF00FF00FF000F000F000F0000009E
:100830000000FF00FF00FF00FF00FF00FF000000BE
:100840000000FF00FF00FF00000000000000F000BB
:10085000F000FF00FF00FF00F000F000F000F000EB
:10086000F000FF00FF00FF000F000F000F00F0007E
:10087000F000FF00FF00FF00FF00FF00FF00F0009E
:10088000F000FF00FF00FF000000000000000F006C
:100890000F00FF00FF00FF00F000F000F0000F006D
:1008A0000F00FF00FF00FF000F000F000F000F0000
:1008B0000F00FF00FF00FF00FF00FF00FF000F0020
:1008C0000F00FF00FF00FF00000000000000FF001D
:1008D000FF00FF00FF00FF00F000F000F000FF004D
:1008E000FF00FF00FF00FF000F000F000F00FF00E0
:1008F000FF00FF00FF00FF00FF00FF00FF00FF0000
:10090000FF00FF00FF00FF000000000000000000EB
:10091000000000000000FF000000000000000000D8
:1009200000000000FF0000000000000000000000C8
:100930000000FF00000000000000000000000000B8
:10094000FF00000000000000000000000000FF00A9
:10095000000000000000000000000000FF00000098
:1009600000000000000000000000FF000000000088
:100970000000000000000000FF0000000000000078
:100980000000000000000000800080008000800067
:100990008000800080008000400040004000400057
:1009A00040004000400040002000200020002000C7
:1009B0002000200020002000100010001000100077
:1009C00010001000100010000800080008000800C7
:1009D00008000800080008000400040004000400E7
:1009E00004000400040004000200020002000200EF
:1009F00002000200020002000100010001000100EB
:100A00000100010001000100FF00FE00FC00F800F1
:100A1000F000E000C00080000100030007000F00AC
:100A20001F003F007F00FF00FF007F003F001F000E
:100A30000F000700030001008000C000E000F0008C
:100A4000F800FC00FE00FF008100420024001800B6
:100A50001800240042008100010002000400080088
:100A600010002000400080008000400020001000A6
:100A70000800040002000100AA005500AA00550069
:100A80000000000000000000000000000000000066
:100A9000AA005500AA005500A0005000A000500078
:100AA000A0005000A00050000A0005000A00050048
:100AB0000A0005000A000500AA005500AA0055001A
:100AC000AA005500AA005500FF0001000100010026
:100AD000010001000100010001000100010001000E
:100AE000010001000100FF00800080008000800004
:100AF000800080008000FF00FF00800080008000F8
:100B000080008000800080006600FF00FF00FF0082
:100B10007E003C00180018003C003C001800420019
:100B2000E700E70018003C0018003C007E00FF00D2
:100B3000FF005A0018003C0018003C007E00FF0037
:100B4000FF007E003C001800180018003C007E00EA
:100B5000FF00DB0018003C00300038009C00FF0064
:100B6000FF009C00380030003C001800DB00FF0054
:100B70007E003C00180018000C001C003900FF002B
:100B8000FF0039001C000C000000080008002A00CB
:100B90003E003E003E002200000001000A001C0052
:100BA0003E007C00180010000000F80070007E007D
:100BB0007000F80000000000100018007C003E00EB
:100BC0001C000A000100000022003E003E003E0022
:100BD0002A0008000800000004000C001F003E006E
:100BE0001C0028004000000000001F000E007E00D6
:100BF0000E001F00000000000000800050003800C0
:100C00007C003E001800080018003C005A00180044
:100C10001800180018003C000F0007000F001D000E
:100C2000B800700020001000000004008200FF00E7
:100C3000FF00820004000000100020007000B800D7
:100C40001D000F0007000F003C00180018001800DE
:100C500018005A003C001800080004000E001D0097
:100C6000B800F000E000F000000020004100FF00AC
:100C7000FF00410020000000F000E000F000B8009C
:100C80001D000E000400080008000800080009000C
:100C90000F000F001F001F00000040002000130085
:100CA0000F000F001F001F000000000000000300E5
:100CB000FF000F001F001F00100010001000900028
:100CC000F000F000F800F800000002000400C80086
:100CD000F000F000F800F800000000000000C00084
:100CE000FF00F000F800F800000000000000240001
:100CF00099005A00FF00000018003C007E007F00B1
:100D00007E003C00080008000000000018003C00C5
:100D10007E007E0056005E0018003D007F00FF0050
:100D2000AD00FF00AD00BF00E000470042007E00C4
:100D300042004700E000000022003E002A000800B8
:100D4000080049007F0041001C001C0008003E0014
:100D5000080008001400220000001100D200FC006E
:100D6000D200110000000000000088004B003F008E
:100D70004B0088000000000022001400080008005A
:100D80003E0008001C001C003C007E00FF00DB0051
:100D9000FF0067007E003C003C0042008100A5008F
:100DA0008100990042003C00180024007E00FF00F2
:100DB0005A0024000000000000003C007E007E007D
:100DC0007E007E003C00000000003C00420042002B
:100DD000420042003C0000003C00420081008100D3
:100DE0008100810042003C0001000000000003007F
:100DF00003003F007F003F00800080008000C000B3
:100E0000E300FF00FF00FE000100010001000300FD
:100E1000C700FF00FF007F00800000000000C0004E
:100E2000C000FC00FE00FC00000000007F00040089
:100E300004001F00070000000000000018007F00F1
:100E4000E000F800F8000000000000001800FE00BC
:100E500007001F001F00000000000000FE0020002F
:100E60002000F800E0000000000000000100430046
:100E70003700FF00FF00FF0040004000E000E200FC
:100E8000EC00FF00FE00FC0002000200070047002B
:100E90003700FF007F003F00000000008000C2001C
:100EA000EC00FF00FF00FF00000000000000000059
:100EB000FF00FF00FF00FF00FF00FF00FF00FF003A
:100EC0000000000000000000000000000000000022
:100ED0000F000F000F000F000F000F000F000F009A
:100EE0000000000000000000000000000000000002
:100EF000F000F000F000F000F000F000F000F00072
:100F000000000000000000003C00660042004200BB
:100F100066007E0066003C003C0066004200420025
:100F200066007E0066003C003C0066004200420015
:100F300066007E0066003C003C0066004200420005
:100F400066007E0066003C003C00660042004200F5
:100F500066007E0066003C003C00660042004200E5
:100F600066007E0066003C003C00660042004200D5
:100F700066007E0066003C003C00660042004200C5
:100F800066007E0066003C003C00660042004200B5
:100F900066007E0066003C003C00660042004200A5
:100FA00066007E0066003C003C0066004200420095
:100FB00066007E0066003C003C0066004200420085
:100FC00066007E0066003C003C0066004200420075
:100FD00066007E0066003C003C0066004200420065
:100FE00066007E0066003C003C0066004200420055
:100FF00066007E0066003C003C0066004200420045
:1010000066007E0066003C0000000000000000005A
:1010100000000000000000000800080008000800B0
:1010200000000000000000000000000000000000C0
:101030000800080008000800080008000800080070
:101040000800080008000800000000000000F80088
:101050000000000000000000080008000800F80080
:101060000000000000000000000000000000F80088
:101070000800080008000800080008000800F80040
:1010800008000800080008000000000000000F0031
:1010900000000000000000000800080008000F0029
:1010A00000000000000000000000000000000F0031
:1010B00008000800080008000800080008000F00E9
:1010C0000800080008000800000000000000FF0001
:1010D0000000000000000000080008000800FF00F9
:1010E0000000000000000000000000000000FF0001
:1010F0000800080008000800080008000800FF00B9
:10110000080008000800080000000A0B02090C0D86
:101110000E080703040100000000000000000000AA
:1011200000000000000000000000000000000000BF
:10113000000000001211100000000000000000007C
:10114000000000000000000000000000000001029C
:1011500010202008081020401020408002010201C9
:101160000804020101020408102040808040201081
:1011700008040201800402018040201008040201DA
:101180000804020101020408102040800102040842
:10119000102040800505050507050808080802021B
:1011A00002020A0A08080404040401010101010101
:1011B00001010303030303030303040707070C0CE4
:1011C0000C0C0C0C0C0C02020202060606060606AB
:1011D00006060B0B0B0B0B0B0B0B00002200250064
:1011E00028002B002E003100340002010000050110
:1011F00008010B0100002100240027002A002D0017
:101200003000330001010000040107010A01F30A64
:1012100011241FBECFEFD1E2DEBFCDBF00E00CBF77
:1012200022E0A0E0B2E001C01D92AE30B207E1F7CB
:1012300012E1C0E1D2E100E005C022970109FE0100
:101240000BBFAAD3CE30D10780E00807B1F7D2D1C7
:10125000A7C30C940000FC01228363834483089598
:10126000CF93DF93FC01438150E0FA01EC56FE4E30
:10127000E491F0E0EE0FFF1FE652FE4EA591B4910F
:10128000FC01248130E0F901EC56FE4E849190E09F
:10129000880F991F86529E4EFC01C591D491FA0188
:1012A000E25BFE4E4491F901E25BFE4E24913FB7B2
:1012B000F89488E0722F7095542F5095988167FFAD
:1012C00002C0922B01C0972398839C91942B9C93EE
:1012D0009C9195239C93660F815081F73FBFDF91CE
:1012E000CF9108951F93CF93DF93EC01142F8A8140
:1012F000882389F06EBD0DB407FEFDCF812F807F5E
:101300008EBD0DB407FEFDCF1295107F1EBD0DB42E
:1013100007FEFDCF0EC0CE01A3DF612F607FCE019F
:101320009FDF612F6295607FCE01DF91CF911F918A
:1013300097CFDF91CF911F910895462F68EFD2CFBD
:10134000CF93DF93EC0160E08B81EAD260E08C8187
:10135000E7D261E08B81ABD261E08C81A8D28A8137
:10136000882311F081E58CBD188260E2CE01E5DFB3
:1013700061E070E080E090E0B5D160E2CE01DDDFB9
:1013800080E390E0D4D166E0CE01D7DF80E390E047
:10139000CED1198281E088836CE0CE01CEDF80E37C
:1013A00090E0DF91CF91C3C1462F6AEF9BCFCF93DF
:1013B000DF93EC01898181110DC08881882311F0B0
:1013C00066E201C064E2CE01B8DF80E390E0AFD115
:1013D00081E08983DF91CF910895EF92FF920F937F
:1013E0001F93CF93DF931F92CDB7DEB77C018B01A4
:1013F000FC0180818823F9F0C7014983D8DF602F81
:101400006F716068C70199DF4981642F6068C80106
:10141000807299279695879596958795682BC70131
:101420008CDF80E390E00F90DF91CF911F910F91BF
:10143000FF90EF907CC10F90DF91CF911F910F91A2
:10144000FF90EF9008950F931F93CF93DF931F9218
:101450001F92CDB7DEB78C01842F462F50E0682F46
:1014600070E0C8012A833983B8DF3981632FC8014E
:101470009BDF2A81622FC80197DF8AE090E00F90FE
:101480000F90DF91CF911F910F9151C1FF920F9358
:101490001F93CF93DF938C01C0E0D0E040E050E099
:1014A000BE01C8019ADFF8E0FF2E60E0C8017CDFD2
:1014B00060E0C80179DF8AE090E039D1FA94A9F7B9
:1014C0002196C034D10551F7DF91CF911F910F9133
:1014D000FF900895AF92BF92CF92DF92EF92FF926A
:1014E0000F931F93CF93DF936C01B62EA42E790137
:1014F000C0E0D0E0F70180819E0148E0849F200D8C
:10150000311D1124C901880F991F885F9E4FAA279A
:1015100097FDA095BA2FABBFFC0187919691F7017B
:1015200021818E01F8E02F9F000D111D1124000F65
:10153000111F085F1E4F222717FD2095322F2BBF4A
:10154000F80107911691382F2227202B4C2F4A0D96
:101550006B2DC60178DF2196C830D10509F0CACFBE
:10156000DF91CF911F910F91FF90EF90DF90CF907F
:10157000BF90AF900895FF920F931F93CF93DF9387
:101580001F921F92CDB7DEB761E086E390D161E094
:1015900086E3C6D161E080E092E0D2DE80E092E0B6
:1015A00075DF10E400E080ECF82EF10E802F810F43
:1015B000880F89838F5F8A839E012F5F3F4F402F63
:1015C0006F2D80E092E086DF085F003479F71F5FBF
:1015D000183441F70F900F90DF91CF911F910F9129
:1015E000FF900895089520E047E368E380E092E0EB
:1015F00032CE0895A7D0FDDFBEDFC0E0D0E0F2DF3D
:101600002097E9F30E940000FACF1F920F920FB6C5
:101610000F9211242F933F938F939F93AF93BF9378
:101620008091060290910702A0910802B0910902F0
:101630003091050223E0230F2D3720F40196A11DE0
:10164000B11D05C026E8230F0296A11DB11D2093F0
:1016500005028093060290930702A0930802B093BC
:10166000090280910A0290910B02A0910C02B091A4
:101670000D020196A11DB11D80930A0290930B02E9
:10168000A0930C02B0930D02BF91AF919F918F91E7
:101690003F912F910F900FBE0F901F9018953FB75D
:1016A000F89480910A0290910B02A0910C02B091E3
:1016B0000D0226B5A89B05C02F3F19F00196A11D6C
:1016C000B11D3FBF6627782F892F9A2F620F711D9A
:1016D000811D911D42E0660F771F881F991F4A9553
:1016E000D1F70895CF92DF92EF92FF92CF93DF93DD
:1016F0006B017C01D4DFEB01C114D104E104F104DE
:1017000079F043D1CCDF6C1B7D0B683E7340A0F3B6
:1017100081E0C81AD108E108F108C851DC4FECCFCC
:10172000DF91CF91FF90EF90DF90CF9008950197D8
:10173000009739F0880F991F880F991F029701971A
:10174000F1F70895789484B5826084BD84B5816092
:1017500084BD85B5826085BD85B5816085BDEEE6B9
:10176000F0E0808181608083E1E8F0E01082808198
:1017700082608083808181608083E0E8F0E0808106
:1017800081608083E1EBF0E0808184608083E0EB26
:10179000F0E0808181608083E1E9F0E08081826017
:1017A0008083808181608083E0E9F0E080818160D6
:1017B0008083E1EAF0E080818260808380818160C3
:1017C0008083E0EAF0E0808181608083E1E2F1E003
:1017D000808182608083808181608083E0E2F1E0AB
:1017E000808181608083EAE7F0E08081846080838B
:1017F0008081826080838081816080838081806835
:1018000080831092C100089590E0FC013197E2318D
:10181000F10508F04BC0EE58FF4FB8C08091800032
:101820008F7703C0809180008F7D80938000089522
:1018300080918000877FF9CF84B58F7702C084B50F
:101840008F7D84BD08958091B0008F7703C0809113
:10185000B0008F7D8093B0000895809190008F77C5
:1018600007C0809190008F7D03C080919000877F9A
:101870008093900008958091A0008F7707C0809199
:10188000A0008F7D03C08091A000877F8093A0007F
:101890000895809120018F7707C0809120018F7D6E
:1018A00003C080912001877F809320010895CF930A
:1018B000DF9390E0FC01E25BFE4E2491FC01EC56CC
:1018C000FE4E8491882349F190E0880F991FFC0116
:1018D000EC50FE4EA591B49186529E4EFC01C591EE
:1018E000D4919FB7611108C0F8948C912095822300
:1018F0008C93888182230AC0623051F4F8948C91D1
:10190000322F309583238C938881822B888304C067
:10191000F8948C91822B8C939FBFDF91CF91089587
:101920000F931F93CF93DF931F92CDB7DEB7282F6E
:1019300030E0F901E85FFE4E8491F901E25BFE4E72
:101940001491F901EC56FE4E04910023C1F0882356
:1019500019F0698359DF6981E02FF0E0EE0FFF1F76
:10196000E652FE4EA591B4919FB7F8948C91611107
:1019700003C01095812301C0812B8C939FBF0F90D2
:10198000DF91CF911F910F9108950895EE0FFF1FE2
:101990000590F491E02D19940790F691E02D19949B
:0419A000F894FFCFE9
:00000001FF
