:100000000C94E9160C948C340C94B7340C94E234B0
:100010000C940D350C9438350C9463350C948E3556
:100020000C94B9350C941A170C941A170C941A17CF
:100030000C941A170C947F300C941A170C941A17FE
:100040000C941A170C941A170C941A170C941A176C
:100050000C941A170C941A170C941A170C94EC3071
:100060000C941A170C941A170C941A170C941A174C
:100070000C941A170C941A170C941A170C941A173C
:100080000C941A170C941A170C941A170C941A172C
:100090000C941A170C941A170C941A170C941A171C
:1000A0000C941A170C941A170C941A170C941A170C
:1000B0000C941A170C941A170C941A170C941A17FC
:1000C0000C941A170C941A170C941A170C941A17EC
:1000D0000C941A170C941A170C941A170C941A17DC
:1000E0000C941A17361B411B561B631B711B811B7B
:1000F000911B9F1BBB1B2B2D2B2D2B2D2B2D2B2D0C
:100100002B2D2B2D2B2D2B2D2B2D2B2D2B2D2B2D2F
:100110002B2D2B2D2B2DC61B2B2D2B2DD81BEA1B4E
:10012000011C131C2B2D2B2D2B2D2B2D2B2D2B2D73
:100130002B2D2B2D2B2D2B2D2B2D2B2D2B2D2B2DFF
:100140002B2D2B2D311C4D1C691C851CA11CBC1C8E
:10015000D71CF21C2B2D2B2D2B2D2B2D0D1D201DD7
:100160003F1D5E1D7D1D2B2D2B2D2B2D2B2D2B2D66
:100170002B2D2B2D2B2D2B2D2B2D2B2D2B2D2B2DBF
:100180002B2D2B2D8C1D2B2D2B2D2B2D2B2D2B2D5E
:100190002B2D2B2D9E1D2B2D2B2D2B2D2B2D2B2D3C
:1001A0002B2D2B2DB01D2B2D2B2D2B2D2B2D2B2D1A
:1001B0002B2D2B2DC21D2B2D2B2D2B2D2B2D2B2DF8
:1001C0002B2D2B2DD21D2B2D2B2D2B2D2B2D2B2DD8
:1001D0002B2D2B2DE21D2B2D2B2D2B2D2B2D2B2DB8
:1001E0002B2D2B2D2B2D2B2D2B2D2B2D2B2D2B2D4F
:1001F0002B2D2B2D2B2D2B2D2B2D2B2D2B2D2B2D3F
:100200002B2DF31D331E511E6F1E8D1EAB1ECD1EDA
:10021000EF1E111F331F551F771F991FBB1FDD1FB7
:10022000FF1F21202B2D2B2D2B2D2B2D2B2D2B2D5F
:100230002B2D2B2D43206A209120B8202B2D2B2DE8
:100240002B2D2B2D2B2D2B2D2B2D2B2D2B2D2B2DEE
:100250002B2D2B2DDF2006212D2154212B2D2B2D55
:100260002B2D2B2D7B21A221C921F0211722262203
:100270006722A922EB2213233B2363232B2D8B23FD
:10028000CD230F2451247C24A724D224FD240F2520
:1002900053259725DB2505262F26592683269426C8
:1002A000D8261C2760278A27B427DE270828192884
:1002B0005D28A128E5280A292F2954297929892987
:1002C000C829072A462A6B2A902AB52ADA2AEA2A56
:1002D000292B682BA72BD12BFB2B252C4F2C602CEB
:1002E000A42CE82C0F321232013205320B32493283
:1002F00016321A322032243228322E32323236323C
:1003000049323C324032443266343034383444343A
:10031000513472347F343800440054005C0058007B
:1003200040003C0000001800240042007E00420013
:100330004200420000007C00220022003C0022001B
:1003400022007C0000001C00220040004000400011
:1003500022001C000000780024002200220022005D
:100360002400780000007E0040004000780040003B
:1003700040007E0000007E00400040007800400009
:100380004000400000001C00220040004E004200DF
:1003900022001C0000004200420042007E00420099
:1003A0004200420000001C0008000800080008008D
:1003B00008001C0000000E000400040004000400FB
:1003C000440038000000420044004800700048002B
:1003D0004400420000004000400040004000400057
:1003E00040007E000000420066005A005A004200B1
:1003F0004200420000004200620052004A004600F3
:100400004200420000001800240042004200420066
:100410002400180000007C00420042007C004000E4
:1004200040004000000018002400420042004A0042
:1004300024001A0000007C00420042007C004800BA
:100440004400420000003C00420040003C0002002A
:1004500042003C0000003E000800080008000800C0
:100460000800080000004200420042004200420032
:1004700042003C00000042004200420024002400F0
:100480001800180000004200420042005A005A00C2
:1004900066004200000042004200240018002400D0
:1004A0004200420000002200220022001C0008003E
:1004B0000800080000007C00040008001000200074
:1004C00040007C0000007C00600060006000600074
:1004D00060007C00000000004000200010000800C8
:1004E0000400000000007C000C000C000C000C005C
:1004F0000C007C00000000000000100028004400F8
:1005000000000000000000000000000000000000EB
:1005100000007C000000000000000000000000005F
:10052000000000000000100010001000100010007B
:100530000000100000002800280028000000000033
:10054000000000000000280028007C0028007C003B
:1005500028002800000010003C0050003800140063
:100560007800100000006000640008001000200007
:100570004C000C00000020005000500020005400EF
:1005800048003400000010001000100000000000BF
:10059000000000000000100020004000400040006B
:1005A00020001000000010000800040004000400F7
:1005B000080010000000100054003800100038003F
:1005C0005400100000000000100010007C0010001B
:1005D00010000000000000000000000000001000FB
:1005E0001000200000000000000000007C0000005F
:1005F00000000000000000000000000000000000FB
:10060000000010000000000004000800100020009E
:100610004000000000003C00420046005A0062001A
:1006200042003C00000008001800280008000800F4
:1006300008003E0000003C00420002000C003000B8
:1006400040007E0000003C00420002003C0002002E
:1006500042003C00000004000C00140024007E0056
:100660000400040000007E00400078000400020046
:100670004400380000001C00200040007C004200C4
:1006800042003C0000007E00420004000800100010
:100690001000100000003C00420042003C004200FC
:1006A00042003C0000003C00420042003E000200CC
:1006B00004003800000000000000100000001000DE
:1006C000000000000000000000001000000010000A
:1006D0001000200000000800100020004000200052
:1006E000100008000000000000007C0000007C00FA
:1006F00000000000000020001000080004000800B6
:100700001000200000003800440008001000100015
:1007100000001000000000000000000000000000C9
:10072000000000000000F000F000F00000000000F9
:100730000000000000000F000F000F00000000008C
:10074000000000000000FF00FF00FF0000000000AC
:10075000000000000000000000000000F000F000B9
:10076000000000000000F000F000F000F000F000D9
:100770000000000000000F000F000F00F000F0006C
:10078000000000000000FF00FF00FF00F000F0008C
:100790000000000000000000000000000F000F003B
:1007A000000000000000F000F000F0000F000F005B
:1007B0000000000000000F000F000F000F000F00EE
:1007C000000000000000FF00FF00FF000F000F000E
:1007D000000000000000000000000000FF00FF001B
:1007E000000000000000F000F000F000FF00FF003B
:1007F0000000000000000F000F000F00FF00FF00CE
:10080000000000000000FF00FF00FF00FF00FF00ED
:1008100000000000000000000000000000000000D8
:10082000F000F000F000F000F000F0000000000028
:10083000F000F000F0000F000F000F0000000000BB
:10084000F000F000F000FF00FF00FF0000000000DB
:10085000F000F000F000000000000000F000F000E8
:10086000F000F000F000F000F000F000F000F00008
:10087000F000F000F0000F000F000F00F000F0009B
:10088000F000F000F000FF00FF00FF00F000F000BB
:10089000F000F000F0000000000000000F000F006A
:1008A000F000F000F000F000F000F0000F000F008A
:1008B000F000F000F0000F000F000F000F000F001D
:1008C000F000F000F000FF00FF00FF000F000F003D
:1008D000F000F000F000000000000000FF00FF004A
:1008E000F000F000F000F000F000F000FF00FF006A
:1008F000F000F000F0000F000F000F00FF00FF00FD
:10090000F000F000F000FF00FF00FF00FF00FF001C
:10091000F000F000F0000000000000000000000007
:100920000F000F000F00F000F000F00000000000CA
:100930000F000F000F000F000F000F00000000005D
:100940000F000F000F00FF00FF00FF00000000007D
:100950000F000F000F00000000000000F000F0008A
:100960000F000F000F00F000F000F000F000F000AA
:100970000F000F000F000F000F000F00F000F0003D
:100980000F000F000F00FF00FF00FF00F000F0005D
:100990000F000F000F000000000000000F000F000C
:1009A0000F000F000F00F000F000F0000F000F002C
:1009B0000F000F000F000F000F000F000F000F00BF
:1009C0000F000F000F00FF00FF00FF000F000F00DF
:1009D0000F000F000F00000000000000FF00FF00EC
:1009E0000F000F000F00F000F000F000FF00FF000C
:1009F0000F000F000F000F000F000F00FF00FF009F
:100A00000F000F000F00FF00FF00FF00FF00FF00BE
:100A10000F000F000F0000000000000000000000A9
:100A2000FF00FF00FF00F000F000F00000000000F9
:100A3000FF00FF00FF000F000F000F00000000008C
:100A4000FF00FF00FF00FF00FF00FF0000000000AC
:100A5000FF00FF00FF00000000000000F000F000B9
:100A6000FF00FF00FF00F000F000F000F000F000D9
:100A7000FF00FF00FF000F000F000F00F000F0006C
:100A8000FF00FF00FF00FF00FF00FF00F000F0008C
:100A9000FF00FF00FF000000000000000F000F003B
:100AA000FF00FF00FF00F000F000F0000F000F005B
:100AB000FF00FF00FF000F000F000F000F000F00EE
:100AC000FF00FF00FF00FF00FF00FF000F000F000E
:100AD000FF00FF00FF00000000000000FF00FF001B
:100AE000FF00FF00FF00F000F000F000FF00FF003B
:100AF000FF00FF00FF000F000F000F00FF00FF00CE
:100B0000FF00FF00FF00FF00FF00FF00FF00FF00ED
:100B1000FF00FF00FF0000000000000000000000D8
:100B200000000000FF0000000000000000000000C6
:100B30000000FF00000000000000000000000000B6
:100B4000FF00000000000000000000000000FF00A7
:100B5000000000000000000000000000FF00000096
:100B600000000000000000000000FF000000000086
:100B70000000000000000000FF0000000000000076
:100B8000000000000000FF00000000000000000066
:100B900000000000000080008000800080008000D5
:100BA0008000800080004000400040004000400085
:100BB00040004000400020002000200020002000D5
:100BC0002000200020001000100010001000100075
:100BD00010001000100008000800080008000800BD
:100BE00008000800080004000400040004000400D9
:100BF00004000400040002000200020002000200DF
:100C000002000200020001000100010001000100D9
:100C1000010001000100FF00FE00FC00F800F000F0
:100C2000E000C00080000100030007000F001F006B
:100C30003F007F00FF00FF007F003F001F000F000C
:100C40000700030001008000C000E000F000F80091
:100C5000FC00FE00FF008100420024001800180084
:100C6000240042008100010002000400080010007E
:100C7000200040008000800040002000100008009C
:100C8000040002000100AA005500AA00550000005F
:100C90000000000000000000000000000000AA00AA
:100CA0005500AA005500A0005000A0005000A00070
:100CB0005000A00050000A0005000A0005000A00CC
:100CC00005000A000500AA005500AA005500AA0068
:100CD0005500AA005500FF000100010001000100BD
:100CE00001000100010001000100010001000100FC
:100CF00001000100FF008000800080008000800073
:100D000080008000FF00FF008000800080008000E5
:100D10008000800080006600FF00FF00FF007E0072
:100D20003C00180018003C003C0018004200E7009E
:100D3000E70018003C0018003C007E00FF00FF00A8
:100D40005A0018003C0018003C007E00FF00FF0025
:100D50007E003C001800180018003C007E00FF00D8
:100D6000DB0018003C00300038009C00FF00FF0052
:100D70009C00380030003C001800DB00FF007E00C3
:100D80003C00180018000C001C003900FF00FF0098
:100D900039001C000C000000080008002A003E007A
:100DA0003E003E002200000001000A001C003E0040
:100DB0007C00180010000000F80070007E00700039
:100DC000F80000000000100018007C003E001C002D
:100DD0000A000100000022003E003E003E002A0002
:100DE00008000800000004000C001F003E001C006A
:100DF00028004000000000001F000E007E000E00D2
:100E00001F000000000000008000500038007C003F
:100E10003E001800080018003C005A001800180096
:100E2000180018003C000F0007000F001D00B8005C
:100E3000700020001000000004008200FF00FF008E
:100E4000820004000000100020007000B8001D00A7
:100E50000F0007000F003C001800180018001800D1
:100E60005A003C001800080004000E001D00B800E5
:100E7000F000E000F000000020004100FF00FF0053
:100E8000410020000000F000E000F000B8001D006C
:100E90000E000400080008000800080009000F0008
:100EA0000F001F001F0000004000200013000F0073
:100EB0000F001F001F000000000000000300FF00E3
:100EC0000F001F001F001000100010009000F00025
:100ED000F000F800F800000002000400C800F00074
:100EE000F000F800F800000000000000C000FF0063
:100EF000F000F800F8000000000000002400990055
:100F00005A00FF00000018003C007E007F007E00B9
:100F10003C00080008000000000018003C007E00B3
:100F20007E0056005E0018003D007F00FF00AD000F
:100F3000FF00AD00BF00E000470042007E0042001D
:100F40004700E000000022003E002A0008000800E0
:100F500049007F0041001C001C0008003E00080002
:100F600008001400220000001100D200FC00D20092
:100F7000110000000000000088004B003F004B0003
:100F800088000000000022001400080008003E0055
:100F900008001C001C003C007E00FF00DB00FF007E
:100FA00067007E003C003C0042008100A5008100FB
:100FB000990042003C00180024007E00FF005A0007
:100FC00024000000000000003C007E007E007E0047
:100FD0007E003C00000000003C0042004200420055
:100FE00042003C0000003C00420081008100810082
:100FF000810042003C0001000000000003000300EB
:101000003F007F003F00800080008000C000E300C0
:10101000FF00FF00FE000100010001000300C70007
:10102000FF00FF007F00800000000000C000C00043
:10103000FC00FE00FC00000000007F000400040033
:101040001F00070000000000000018007F00E00003
:10105000F800F8000000000000001800FE00070083
:101060001F001F00000000000000FE002000200004
:10107000F800E0000000000000000100430037001D
:10108000FF00FF00FF0040004000E000E200EC0035
:10109000FF00FE00FC0002000200070047003700CE
:1010A000FF007F003F00000000008000C200EC0055
:1010B000FF00FF00FF000000000000000000FF0034
:1010C000FF00FF00FF00FF00FF00FF00FF00000027
:1010D00000000000000000000000000000000F0001
:1010E0000F000F000F000F000F000F000F00000097
:1010F0000000000000000000000000000000F00000
:10110000F000F000F000F000F000F000F00000004F
:101110000000000000003C00660042004200660043
:101120007E0066003C003C00660042004200660013
:101130007E0066003C003C00660042004200660003
:101140007E0066003C003C006600420042006600F3
:101150007E0066003C003C006600420042006600E3
:101160007E0066003C003C006600420042006600D3
:101170007E0066003C003C006600420042006600C3
:101180007E0066003C003C006600420042006600B3
:101190007E0066003C003C006600420042006600A3
:1011A0007E0066003C003C00660042004200660093
:1011B0007E0066003C003C00660042004200660083
:1011C0007E0066003C003C00660042004200660073
:1011D0007E0066003C003C00660042004200660063
:1011E0007E0066003C003C00660042004200660053
:1011F0007E0066003C003C00660042004200660043
:101200007E0066003C003C00660042004200660032
:101210007E0066003C0000000000000000000000AE
:10122000000000000000080008000800080000009E
:1012300000000000000000000000000000000800A6
:10124000080008000800080008000800080008005E
:10125000080008000800000000000000F80000007E
:10126000000000000000080008000800F80000006E
:10127000000000000000000000000000F80008006E
:10128000080008000800080008000800F80008002E
:101290000800080008000000000000000F00000027
:1012A0000000000000000800080008000F00000017
:1012B0000000000000000000000000000F00080017
:1012C0000800080008000800080008000F000800D7
:1012D000080008000800000000000000FF000000F7
:1012E000000000000000080008000800FF000000E7
:1012F000000000000000000000000000FF000800E7
:10130000080008000800080008000800FF000800A6
:1013100008000800080068C40F36C4FF32C475CA4C
:1013200000E2009804C2C090F4C40037C40233C481
:101330009035C44F31C4003FC41037C40433C3FCDC
:10134000E4FD9C1AC3FDE4B59C14C3FEE4AE9C0E00
:10135000C3FFE4769C08C49637C4BA33033FC491F4
:1013600037C448333F0C2A2A204D494E4F4C202A7F
:101370002A0D56302E393420505352203230313617
:101380000D0037CEFF33CEFFC4FFCEFFCEFDC464C9
:10139000CA01C4FFCA00AA004003FA010106D480B2
:1013A0009CF44002F20101C201E40A9806C601C49D
:1013B0000A90DD40CA01C40037C40233C6FF9C084E
:1013C000C601C2009C02C601C601D4809C07C2FFB0
:1013D000DC303F90F3C60133C601373F90FEC400B6
:1013E000CEFF01C501E42098FAC5FF02F4C69417A8
:1013F000F48A941302407070707001C501D40F021A
:10140000707001AA0090DCC60102F4FF063F90074D
:10141000C40137C467333F9044C41035C40431C499
:1014200000CEFFC501D4809C2EC50101C49037C4F5
:101430006B333FC40037C40233C4203FC501980357
:101440003F90F9C40D3FAA00D4039CD7C40037C411
:1014500004333FE42098CCC601C4FF0102901EC4AF
:101460001037C40433C4FFCB00C4FDCBFCC4B5CBE0
:10147000FDC4AECBFEC476CBFF02C4FF019030C4E6
:101480009537C47E3303C1009825E43A9821C501FD
:10149000E42C98EBE40C98E7E4089822E40C9859C3
:1014A000C1FF02F4A59404F41A9406C43501029015
:1014B0006C02F490CAFEC40CF400CAFF9005C5FF8C
:1014C0003F945AC6FE35CEFF31CEFFC40037C40666
:1014D00033C40C35C4B031C4483FC49037C4C7339B
:1014E0003FD4809C03C10001C60131C60135C6014D
:1014F00033C6013740CB0090863F9421C2FF35CAE6
:10150000FFC2FE31CEFEC40037C40633C4483FC517
:10151000019CFCB9FFC60131C6013590DA9013C4B5
:101520000C37C49033C41ACAFFC400CF01BAFF9C61
:10153000F8039051C40837C300E4839844C40037CB
:10154000C40233C100987FE43A987BC501E4209837
:10155000E3E40C98DFE4179870E419982AE40698FD
:1015600033C4203FC5FFC49437C42B333F945BC4BE
:101570009037C46B333FC40037C40233C4203F905C
:10158000B3C43801029043C5019835E42298A5C13F
:10159000FF3F90F3C49537C47E333F942DC6FF358B
:1015A000CA00C6FF31CA00C40037C40233C501985F
:1015B000029408C60131C6013590C4C1FF3F90EDC9
:1015C000C43501029004C40D3F039027C49537C46D
:1015D0007E333F941EC2FE01C2FF374033C7FF3542
:1015E000CEFF31CEFFC40C35C49031033FC601316C
:1015F000C601359051C100E4289820C10002F4A52D
:101600009404F41A9406C4350102903A02F490CE80
:10161000FEC40CF400CA01C501900BC49537C47E0A
:10162000333F9422C6FEC501E42098FAE41D9CD6FF
:10163000C49437C42B333FC60206940AC2FE33C299
:10164000FF3740CB0003904D3F944AC100E43D98E2
:101650000EE41E980AE41F9806C43501029036C5B0
:1016600001CEFF40CEFF3FC602069429C2FFE43CF4
:101670009C09C2FE037806D480900DC2FE609802D9
:10168000C40201C2FFD40260039C0AC100E43B9C77
:10169000C8C501905990293F942640CAFFC410350F
:1016A000C40431C1009406C4310102901301C10188
:1016B000E2FF980AC58090EBC41035C40431900D48
:1016C000069412C5019806E43A9CF89021C1009452
:1016D0001103C4FF01C49637C4BA333FC4350102B5
:1016E00090F3C40C37C48D33C101CB00C502C501D2
:1016F00098DBE42098F8E41A98F4E41898C5C1FF40
:1017000001C49537C4C933C705982C609CF9C3FC44
:10171000E1009CF3C3FDCAFFC50198C0E43A98BC40
:10172000BAFF9CF4C501E42098FAC5FFC3FE01C3CB
:10173000FF3740333F900BC5FFC49237C4DE333FC1
:10174000900037CEFF33CEFFC42BCEFFC400CEFFB8
:10175000C40C37C49033C100984FC501E42098F6FB
:10176000E4089855E4099C1B02C3FF1FCBFF01C38B
:10177000FE1FCBFE600106D4809C06C3FFE4B4CB01
:10178000FF9064E4069C0FC100981E01C101E4278C
:101790009C17C5029051C1FF02F4A5940CF41A9451
:1017A00042F4079404F40A941DC4340102C602C62C
:1017B0000133C60137063F9089C5FFC49537C47E03
:1017C000333F94E9902101C10002F4C69419F48AD0
:1017D000941502407070707001C501D40F027070D2
:1017E0000190E401C38001C201E42B9C0602C20007
:1017F000709008E4069C1203C20078CA009030C4BE
:101800003790A8C200010390A4E4079C45C200CA17
:1018100001C400CA00409817D4019807C20002F220
:1018200001CA00401C01C20102F201CA0190E6C5D2
:1018300001E42098FAC5FFE42B980CE4069808E42C
:10184000079804E4059CBCC501CA01C49437C43997
:10185000333F4098AAC200CA01C400CA00CAFFC4EC
:1018600080CAFEC2FE98C802C2FFF2FFCAFFC201D0
:101870009402AAFFC2FF0378CAFD06940AC2FDCAF9
:10188000FFC2FEDA00CA00C2FE1CCAFEC20102F29A
:1018900001CA0190CEC6FE37CEFF33CEFFC100E4B1
:1018A000289C2EC501C49437C42B333F942740CACB
:1018B00003C100E42C9C1AC5013F941940CA0233AD
:1018C000C100E4299C0BC501C20337C3000103908A
:1018D00004C4340102C60133C60137C602063F4CB8
:1018E0004502DE924946013193474F0380934341BD
:1018F00003B5925052011D92434C040892494E0187
:101900006891454E0262914E45024891525502A19E
:10191000934C490302914F5301F9900037CEFF33A6
:10192000CEFF40CEFFC41037C40433C300D4809C24
:1019300015C30001C301E2009804C78090EDC38085
:10194000CF01E4FF9CF8C60101C60133C601373F51
:1019500037CEFF33CEFF40CEFF35CEFF3531CEFF41
:1019600031C400CEFFAA00C5019CFAC41037C404DC
:1019700033C300D4809C11C30001C20303FB019850
:10198000FE069404C78090E9C400CAFFCAFEAAFEFE
:101990009C02AAFFC701E4FF9CF4C20001C300CB74
:1019A00080C7FFC2FE9C06BAFFD4809C04BAFE909A
:1019B000ECC701C20131C20235C501CF019CFAC694
:1019C00001C60131C60135C60101C60133C6013762
:1019D0003FC40037C4023306D4809824C49635C46B
:1019E000D131C4003F90534F4B0D0021455252203E
:1019F000002041542000425245414B0041542000F8
:101A0000C49635C4D53140E4FF98D140E4389C09F0
:101A1000C49635C4E031C42001C4003F403FC40037
:101A20003FC40C37C48D33C30001C49037C46B333B
:101A30003FC40037C40233C40D3FC40037C406336B
:101A4000C40C35C4B031C400C9DDC4483FC49037AC
:101A5000C4C7333FD4809C19C10098DEC5019CFCEB
:101A6000C4FFC900C40C35C4B031C49337C4D733E4
:101A70003FC49637C405333FC10098BEC400C9FFB8
:101A8000C402CAFFAAFFC5019CFAC5FFC5FF9CFCA2
:101A900040C900C2FFCDFF3F90A0FFFFFFFFFFFF47
:101AA000FFFFFFFFFFFFFFFFFFFFFFFFFFFFFFFF46
:101AB000FFFFFFFFFFFFFFFFFFFFFFFFFFFFFFFF36
:101AC000FFFFFFFFFFFFFFFFFFFFFFFFFFFFFFFF26
:101AD000FFFFFFFFFFFFFFFFFFFFFFFFFFFFFFFF16
:10231000FFFFFFFFFFFF089006902F9009902DC44C
:102320000137C45D333FC40835CEFFC10094FCD4EF
:102330007FCAFFC100D4809CFAC60135C2FE02F4F8
:10234000209402FC20F4E03F90DC9068CEFF37CE72
:10235000FF33CEFF40CEFFC40001C40037C49D331D
:10236000C49B3FC40037C40F333FC980C40037C487
:102370009D33C4083FC180D4E0980F40E20398DA4F
:10238000C1803FC40102700190D0C180E408981759
:10239000E4059CC6C980C40D3FC60101C60133C611
:1023A0000137C6013F90A54098B0C4083FC4FF0262
:1023B000700190A6CEFF35CEFF31CEFF40CEFFC2DA
:1023C000039C12C20131C20235C5010135CA023176
:1023D000CA0140984601C40C35C48031C100314067
:1023E000D4E098454003FC6006E480940440D43F68
:1023F0000140C90035C40035CD01C40C35C480315D
:10240000C9009413C40C35C41031C100C9F0C50112
:102410003194F6C470903DC20398A8C60101C6016C
:1024200031C60135C6013F908B40E40D981BE40195
:102430009820E4049CE13198DE31C5FFC420C90036
:10244000C40035C420C90090B131D4F002F4103179
:1024500090A8C400CEFF31C420CD013194F8C4004F
:1024600031C40C35C10035C40035CD013194F1C6FD
:1024700001319086C49035C100E4689C013DC40FD1
:1024800036C4FF32C640C4A5CEC0E2009CF8C400EA
:1024900035C40031C420CD013194F8C40C35C418C2
:1024A00031C400C900C103E4A7984BC4A7C903C441
:1024B0000CC902C42EC901C40537C43333C4013565
:1024C000C4B431C50198223F90F92A2A2053432FE2
:1024D0004D50204F53202A2A0D56302E393420508B
:1024E000535220323031360D00C401078FFFC4052E
:1024F000078FFFC40007C40537C4A033C4003FC41E
:102500000537C43333C45D3FC40001C40835C1007E
:10251000940290FAC10094FCD47FCAFFC40C35C465
:102520001E31C2FFE408981EE405982840E4109884
:10253000DAC2FF02F4209402FC20F4E0C9803F01DB
:1025400002F4010190C54098C203FC0101C4083F98
:1025500090B990A2C980C40D3FC4000140CAFFC910
:10256000FFC10002F43F941AC405CAFE4002700184
:10257000C2FFF2FFCAFFBAFE9CF2C501D41F580188
:1025800090DFC41C31C900C44731C40735C100D92C
:10259000019831C503609CF5C1FEE2FF9CEFC4D3F6
:1025A00033C40537C1FFD4F0E4209C22C1FF02F1FF
:1025B000FFD41FF4EE31C40735C10001C10135401D
:1025C00031C5FF3DC403078FFFC400079084C1FFDE
:1025D000CEFF3F069427C41C31CEFFC40C35C1008A
:1025E00031C100E4219C1EC20003FC1894D6C20035
:1025F00001C40C35C40031C180CA009008C200D4A7
:10260000809CC1CEFFC40C37C41933C30402F2014D
:10261000CA01C30031C30135C201CD01941FC200FC
:10262000CD01C3049C17C201E48F9811C1FF02FBC6
:1026300000C9FFC201D4F0E4909C02B9FF31CB0085
:1026400035CB01C602900C3F3F9008C402078FFFB4
:10265000C40007C4DF33C401373F3F0694ED313374
:102660003537C7FF3F90EC3F0694E031CAFF35CACB
:10267000FE023F3FC4000119C420CAFD8FFFBAFD0E
:102680009CFAC40001198F10C4010119C4008F0401
:10269000C50101C408CAFD19C4008F04BAFD9CF726
:1026A000BAFF9CDEBAFE94DAC4010119C4008F049B
:1026B000C400011990AF90933F3F3FC40837C30057
:1026C000D4809CF2194094F68F06C408CAFF19C43E
:1026D000008F04BAFF9CF740CD01194094E090D4DC
:1026E0003F0694D231014003FC1894CAC40C35C48F
:1026F0001931C10031C400027031C90090E03F3F80
:10270000C407CEFFC40537C4A033C4043FC40C358E
:10271000C41931C10002F404C900C101F400C901A7
:10272000BA009CE0C60190B6C4D333C405373F0657
:1027300094ACC40C35C4193101C10033C101374018
:10274000CB00A9009CE2A90190DE3F3FC407CEFC6C
:10275000C40537C4A033C4003FC40C35C41931C10B
:102760000033C10137C701CA019404C701CA02C4BA
:10277000E933C900C40737C901C201E302D4F09CA0
:102780000BC20103FB02CA03D4E09808C7FD90E91D
:1027900090BE9092C302D487E4849C04C2039CEC54
:1027A000C300CEFFC301CEFFC40537C43333C420FA
:1027B0003FC403CEFFC2011C1CD41F980402F44086
:1027C0003FC405CAFF02C202F202CA02C201F201FC
:1027D000CA01BAFF9CEFBA009CDBC603C2039C1F70
:1027E000C201940AC40537C40033C202033FC405C2
:1027F00037C43333C40D3FBA009C95C6049093C4CC
:10280000203FC203D4049803C4403FC4503FC203D6
:10281000D403DC303F90C9CEFFC40537CEFFC433AC
:1028200033CEFF069403C4203FC2021C1C1C1C02B2
:10283000EC90EC403FC202D40F02EC90EC403FC65B
:102840000133C60137C6013F90CDCEFFC40C35CE53
:10285000FFC41831CEFFC40037CEFF33CEFFC10016
:1028600033C420CB00C204E40D9840E4059830C284
:1028700004D43FCF01A900D40F9C0CC410CAFFC4DC
:1028800020CF01BAFF9CF8C10033C49BCB00C60126
:1028900033C60137C60131C60135C6013F90AB339F
:1028A00098E5B90033C420CB0090DCC100D470029D
:1028B000F410C9003390C4CEFFC40537CEFFC40066
:1028C00033CEFFC40C35C41931C101023FC100022F
:1028D0003F01C101354031BA029409C60133C60235
:1028E000373F90D3C501033F90EDC40C35C41C3174
:1028F000C400CAFFCAFEC10031C100987BC501E413
:102900002098F6E460985EE410984CC1FF02F45001
:102910009466FC09940AFC07945EF479945AF47660
:1029200002F40AD40F01C404CAFD02C2FFF2FFCAB6
:10293000FFC2FEF2FECAFEBAFD9CEFC2FF58CAFFFC
:10294000C50103FC2294C4C5FFC41C31C900C2FFE9
:1029500031C2FE35039022C100D4FCE4309C19C57D
:1029600001D4039002C404CAFDC41D3101C1000298
:10297000F2FDC90040319081023F06940CC4193128
:1029800001C40C35C90140C9003FC40C35C419311C
:10299000C10001C1013540313FFFFFFFFFFFFFFFD5
:1029A000FFFFFFFFFFFFFFFFFFFFFFFFFFFFFFFF37
:1029B000FFFFFFFFFFFFFFFFFFFFFFFFFFFFFFFF27
:1029C000FFFFFFFFFFFFFFFFFFFFFFFFFFFFFFFF17
:1029D000FFFFFFFFFFFFFFFFFFFFFFFFFFFFFFFF07
:1029E000FFFFFFFFFFFFFFFFFFFFFFFFFFFFFFFFF7
:1029F000FFFFFFFFFFFFFFFFFFFFFFFFFFFFFFFFE7
:102A0000FFFFFFFFFFFFFFFFFFFFFFFFFFFFFFFFD6
:102A1000FFFFFFFFFFFFFFFFFFFFFFFFFFFFFFFFC6
:102A2000FFFFFFFFFFFFFFFFFFFFFFFFFFFFFFFFB6
:102A3000FFFFFFFFFFFFFFFFFFFFFFFFFFFFFFFFA6
:102A4000FFFFFFFFFFFFFFFFFFFFFFFFFFFFFFFF96
:102A5000FFFFFFFFFFFFFFFFFFFFFFFFFF942100CE
:102A60002560016C0C026C4C032E1104AE24056130
:102A70000E06330C07F039082F4D1972021C4C4E0C
:102A80001D52021E4C4A1F0D00200100210700228A
:102A9000B44223B41C240300250200260C002704A2
:102AA00000280C623008623403623C853040C50562
:102AB00050453E58456260251068850470250C78A5
:102AC00099118FB029905001945A0198DA299C8469
:102AD00025A88411B88401C08930C47402C8C40513
:102AE000D0C905D4F201D8493EDCF261E04962E484
:102AF0002410E82910EC8404F08904F4240CF8294B
:102B00000CFC0000E803310344035103A2037801E5
:102B10001204CA0334040200000A0B02090C0D0E51
:102B2000080703040100000000000000000000008E
:102B30000000000000000000000000000000000095
:102B40000000001211100000000000000000000052
:102B50000000000000000000000000000001021062
:102B600020200808102040102040800201020108A7
:102B70000402010102040810204080804020100857
:102B800004020180040201804020100804020108B0
:102B90000402010102040810204080010204081010
:102BA00020408005050505070508080808020202FF
:102BB000020A0A08080404040401010101010101D8
:102BC000010303030303030303040707070C0C0CAF
:102BD0000C0C0C0C0C020202020606060606060687
:102BE000060B0B0B0B0B0B0B0B000020002300261E
:102BF0000029002C002F0032000001000003010614
:102C000001090100002200250028002B002E0031C0
:102C100000340002010000050108010B0100002141
:102C200000240027002A002D00300033000101009D
:102C300000040107010A010000000000000000007C
:102C40000000000009600000000000007131000079
:102C5000007A736177320000637864653433000072
:102C600020766674723500006E62686779360000FF
:102C7000006D6A75373800002C6B696F30390000C1
:102C80002E2F6C3B702D00000027005B3D000000E4
:102C9000000D5D005C00000000000000007F0000EF
:102CA00031003437000000302E323536381B00003A
:102CB0002B332D2A39000000000000000000000026
:102CC000000000000000000000000000097E00007D
:102CD0000000000051210000005A534157400000FD
:102CE00043584445242300002056465452250000F2
:102CF0004E424847595E0000004D4A55262A0000C2
:102D00003C4B494F292800003E3F4C3A505F0000A1
:102D10000022007B2B000000000D7D007C000000E5
:102D200000000000007F0000310034370000003058
:102D30002E323536381B00002B332D2A3900000087
:102D40000000000000000000000000000000000083
:102D50000000000000000000000000000000000073
:102D60000000000000000000000000000000000063
:102D70000000000000000000000000000000000053
:102D80000000000000000000000000000000000043
:102D90000000000000000000000000000000000033
:102DA0000000000000000000000000000000000023
:102DB0000000000000000000000000000000000013
:102DC0000000000000000000000000000000000003
:102DD0008A1911241FBECFEFD1E2DEBFCDBF00E0C4
:102DE0000CBF12E0A0E0B2E0E8E4FDE600E00BBFBB
:102DF00002C007900D92AE36B107D9F727E1AEE6D3
:102E0000B2E001C01D92AD38B207E1F71DE2C2ED9C
:102E1000DDE200E006C022970109FE010BBF0E941F
:102E20003236C03DD10780E00807A9F70E94DF30A5
:102E30000C94A2360C940000FC012283638344832B
:102E40000895CF93DF93FC01438150E0FA01ED55E3
:102E5000F44DE491F0E0EE0FFF1FED5FF34DA5910F
:102E6000B491FC01248130E0F901ED55F44D8491D9
:102E700090E0880F991F8D5F934DFC01C591D4910F
:102E8000FA01E35AF44D4491F901E35AF44D2491C7
:102E90003FB7F89488E0722F7095542F5095988121
:102EA00067FF02C0922B01C0972398839C91942BBB
:102EB0009C939C9195239C93660F815081F73FBF13
:102EC000DF91CF9108951F93CF93DF93EC01142FDF
:102ED0008A81882389F06EBD0DB407FEFDCF812F56
:102EE000807F8EBD0DB407FEFDCF1295107F1EBDF5
:102EF0000DB407FEFDCF0EC0CE01A3DF612F607FB2
:102F0000CE019FDF612F6295607FCE01DF91CF916F
:102F10001F9197CFDF91CF911F910895462F68EFB2
:102F2000D2CFCF93DF93EC0160E08B810E9483329C
:102F300060E08C810E94833261E08B810E944A3282
:102F400061E08C810E944A328A81882311F081E5F8
:102F50008CBD188260E2CE01E1DF61E070E080E0CC
:102F600090E00E94653160E2CE01D8DF80E390E01E
:102F70000E948A3166E0CE01D1DF80E390E00E94BA
:102F80008A31198281E088836CE0CE01C7DF80E35B
:102F900090E0DF91CF910C948A31462F6AEF93CF66
:102FA000CF93DF93EC01898181110EC08881882342
:102FB00011F066E201C064E2CE01B0DF80E390E090
:102FC0000E948A3181E08983DF91CF910895EF9249
:102FD000FF920F931F93CF93DF931F92CDB7DEB76E
:102FE0007C018B01FC018081882301F1C7014983A9
:102FF000D7DF602F6F716068C70190DF4981642F50
:103000006068C801807299279695879596958795EF
:10301000682BC70183DF80E390E00F90DF91CF91B1
:103020001F910F91FF90EF900C948A310F90DF91D8
:10303000CF911F910F91FF90EF9008950F931F93E1
:10304000CF93DF931F921F92CDB7DEB78C01842FF1
:10305000462F50E0682F70E0C8012A833983B7DF1C
:103060003981632FC80199DF2A81622FC80195DF5A
:103070008AE090E00F900F90DF91CF911F910F9118
:103080000C948A31FF920F931F93CF93DF938C019F
:10309000C0E0D0E040E050E0BE01C80198DFF8E0B9
:1030A000FF2E60E0C80179DF60E0C80176DF8AE0CA
:1030B00090E00E948A31FA94A1F72196C034D1059C
:1030C00049F7DF91CF911F910F91FF900895AF9233
:1030D000BF92CF92DF92EF92FF920F931F93CF9305
:1030E000DF936C01B62EA42E7901C0E0D0E0F70189
:1030F00080819E0148E0849F200D311D1124C9016B
:10310000880F991F8A5E9C4FAA2797FDA095BA2F1A
:10311000ABBFFC0187919691F70121818E01F8E008
:103120002F9F000D111D1124000F111F0A5E1C4F4F
:10313000222717FD2095322F2BBFF80107911691FA
:10314000382F2227202B4C2F4A0D6B2DC60176DFFE
:103150002196C830D10509F0CACFDF91CF911F91D8
:103160000F91FF90EF90DF90CF90BF90AF900895B8
:10317000CF93DF9361E086E30E944A3261E086E309
:103180000E94833261E08FE692E0CBDE8FE692E030
:1031900079DF47E35CE263E082E00E94F133E5E738
:1031A000F2E08FEF819392E0ED37F907D9F781E0F4
:1031B0008093FF02CDE7D2E082E0CD3FD80721F037
:1031C0000E948E368993F8CFDF91CF910895AF9208
:1031D000BF92DF92EF92FF920F931F93CF93DF93F3
:1031E0001F92CDB7DEB78091FF02811105C00E940A
:1031F000BA338823D1F129C01092FF0285E7A82EA7
:1032000082E0B82E0DE712E050E0F50180818823BE
:1032100099F07801D12C9701452F6D2D8FE692E022
:10322000598355DFD394F2E0EF0EF11C598188E009
:10323000D812F1CFF5011082FFEFAF1ABF0A005F7D
:103240001F4F585F503409F7D2CF0E94CD3387FD0E
:1032500003C08093FE0202C01092FE028091FE0223
:103260008F3719F488E08093FE028091FE028093EC
:10327000FD021092FE020F90DF91CF911F910F91EE
:10328000FF90EF90DF90BF90AF9008958091FD0286
:103290001092FD028111806808958F7790E0FC0103
:1032A000E358FD4F20812617D1F06083FC0124E014
:1032B000F595E7952A95E1F7EB58FD4F959587959C
:1032C0008770992720E830E002C0359527958A95C8
:1032D000E2F78081822B808381E08093FF026093FC
:1032E0007402089580E0089580E00895E82FF0E0EA
:1032F000EE0FFF1FEB5EFD4F60817181611571055F
:1033000019F48CE00C946C3020E030E0A9018CE0E2
:103310000C944B2D20E047E368E38FE692E08CDDD0
:103320008EE692E00C94F03324C1CF92DF92EF92BC
:10333000FF92CF93DF9300D01F92CDB7DEB73CD181
:10334000282F30E040E050E02115310541055105BE
:1033500049F129833A834B835C830E943631C090C4
:103360000003D0900103E0900203F0900303298151
:103370003A814B815C816C157D058E059F0548F374
:1033800068EE73E080E090E00E94E4352C0D3D1D76
:103390004E1D5F1D209300033093010340930203F1
:1033A000509303030F900F900F900F90DF91CF91E8
:1033B000FF90EF90DF90CF90089540911E035091C1
:1033C0000D03242F30E0C901850F911D60910F037B
:1033D000860F911D9093070380930603692F6170F8
:1033E00060930F03452747FF03C010920E0307C0E9
:1033F0002827392727FFF9CF21E020930E03809358
:103400001E03089590911E0380910D03292F2F70A4
:10341000382F3F70230F30910F03230F20930A039F
:10342000392F307F807F90E0830F911D90930703A9
:103430008093060310920F032A3040F02A50209305
:103440000A03409690930703809306038091060336
:10345000909107038139910548F0805A9109909322
:1034600007038093060381E080930F038091060396
:1034700090910A03892B80931E030895809108037D
:10348000909109039C013C50211544E1340738F424
:10349000F901E15EFC4F80910D0380830895811551
:1034A00028E0920718F460910D03F7CE089520915B
:1034B000080330910903C901211548E0340718F4C5
:1034C0008A5E9C4D07C09059811540E1940750F4E5
:1034D0008A5E9C4EAA2797FDA095BA2FABBFFC0130
:1034E000879118C0C9019C50811544E1940728F4C4
:1034F000FC01E15EFC4F80810DC0C901985081152F
:10350000944038F42A3A3A4011F4ECDE03C0BEDEAF
:1035100001C08FEF80930D03089580911C038F707D
:1035200080931C0380E0E0DE811105C080911C03C4
:10353000806180931C0381E0D7DE811105C08091FA
:103540001C03806280931C0380910E03882329F062
:1035500080911C03806480931C0380910F03882357
:1035600029F080911C03806880931C0380911C03C8
:10357000089510921C0310921D0310921E031092C6
:103580001503109214031092170310921603109251
:1035900019031092180310921B0310921A03109231
:1035A0000E0310920F031092130310921203109245
:1035B000110310921003DCCD0F931F93CF93DF9371
:1035C00080911003909111030097E9F0893823E16D
:1035D000920748F088589341909311038093100309
:1035E000F6DD0C94452D880F991F20911203309120
:1035F0001303280F391F30931303209312031092E3
:1036000011031092100380911A0390911B030196ED
:1036100090931B0380931A039093090380930803EC
:1036200046DF80910D0380930C0387FF17C08091C4
:103630001A0390911B03019690931B0380931A0326
:103640008091080390910903019690930903809358
:1036500008032DDF80910D0380930B0380910C03F1
:1036600090E0FC01EE58FF4F0C942236809112033B
:1036700090911303089690931303809312030C9474
:103680002B2D80911E0380930A0390911D0390932C
:103690001E0380931D0380911203909113030796DC
:1036A00090931303809312030C942B2D10920F030D
:1036B00080911203909113030596909313038093C6
:1036C00012030C942B2D81E080930F038091120341
:1036D00090911303059690931303809312030C9417
:1036E0002B2D80911C03877F80931C0380911203F4
:1036F00090911303069690931303809312030C94F6
:103700002B2D80911C03886080931C0380911203F1
:1037100090911303069690931303809312030C94D5
:103720002B2DFBDE80931E038091120390911303D7
:10373000059690931303809312030C942B2D809184
:103740001E0380931C03982F991F9927991F90930C
:103750000F0386FB992790F990930E038770C6DDBF
:103760008091120390911303069690931303809314
:1037700012030C942B2D8091120390911303069643
:1037800090931303809312030C942B2D80911D03AF
:1037900090E09595879580931D03809112039091F9
:1037A0001303059690931303809312030C942B2D0F
:1037B00080911E0390E09595879580931E038091DC
:1037C00012039091130305969093130380931203B1
:1037D0000C942B2D80910F0340E8849FC00111248D
:1037E00090911E039695982B90931E03809112033F
:1037F00090911303059690931303809312030C94F6
:103800002B2D80911E0380FB879587F980931E03E3
:103810008091120390911303059690931303809364
:1038200012030C942B2D30911E03232F2170209313
:103830000A0380910F0340E8849FC0011124932F55
:103840009695982B90931E0320930F03809112035B
:1038500090911303059690931303809312030C9495
:103860002B2D80911A0390911B0380930A034091A2
:103870001E039C012227242B30931B0320931A0341
:1038800080931E03809112039091130308969093E6
:103890001303809312030C942B2D809118039091A5
:1038A000190380930A0340911E039C012227242BB5
:1038B000309319032093180380931E038091120301
:1038C00090911303089690931303809312030C9422
:1038D0002B2D809116039091170380930A0340913A
:1038E0001E039C012227242B3093170320931603D9
:1038F00080931E0380911203909113030896909376
:103900001303809312030C942B2D80911403909138
:10391000150380930A0340911E039C012227242B48
:10392000309315032093140380931E038091120398
:1039300090911303089690931303809312030C94B1
:103940002B2D80911A0320911B0320930A033091A1
:103950001E0390E0932B90931B0380931A032093F4
:103960001E03809112039091130308969093130302
:10397000809312030C942B2D80911803209119032E
:1039800020930A0330911E0390E0932B9093190328
:103990008093180320931E038091120390911303C8
:1039A000089690931303809312030C942B2D80910F
:1039B00016032091170320930A0330911E0390E011
:1039C000932B909317038093160320931E038091EB
:1039D000120390911303089690931303809312039C
:1039E0000C942B2D809114032091150320930A032E
:1039F00030911E0390E0932B909315038093140352
:103A000020931E03809112039091130308969093C4
:103A10001303809312030C942B2D80911A03909121
:103A20001B039093070380930603809112039091E8
:103A30001303079690931303809312030C942B2D7A
:103A400080911A0390911B039093070380930603C0
:103A5000209118033091190330931B0320931A030C
:103A6000909319038093180380911203909113038C
:103A7000079690931303809312030C942B2D80913F
:103A80001A0390911B0390930703809306032091E0
:103A900016033091170330931B0320931A0390935E
:103AA00017038093160380911203909113030796D6
:103AB00090931303809312030C942B2D80911A037F
:103AC00090911B03909307038093060320911403A6
:103AD0003091150330931B0320931A039093150321
:103AE000809314038091120390911303079690938F
:103AF0001303809312030C942B2D80911D0380934C
:103B00001E03809112039091130306969093130362
:103B1000809312030C942B2D80911E0390911D0312
:103B2000892780931E0380911203909113030696B8
:103B300090931303809312030C942B2D80911E03FA
:103B400090911D03892B80931E0380911203909105
:103B50001303069690931303809312030C942B2D5A
:103B600080911E0390911D03892780931E038091ED
:103B700012039091130306969093130380931203FC
:103B80000C942B2D80911D0380930D033BDC8091C1
:103B90001203909113030B969093130380931203D7
:103BA0000C942B2D80911D0380930D0306DC8091D6
:103BB00012039091130307969093130380931203BB
:103BC0000C942B2D80911D03809580930D03F5DBC4
:103BD000809112039091130308969093130380939E
:103BE00012030C942B2DC0910B03D0E0DC2FCC27BB
:103BF000009112031091130360E177E280E090E0FE
:103C0000601B710B8109910922E030E040E050E037
:103C10000E940636C217D30768F4CC0FDD1FC00F11
:103C2000D11FD0931303C09312031092110310926B
:103C300010030CC0C21BD30BD0931103C09310030D
:103C400080E197E2909313038093120310921E0376
:103C500080911203909113030D9690931303809318
:103C600012030C942B2D20910B03332727FD309545
:103C7000309305032093040380911A0390911B0352
:103C8000820F931F90931B0380931A03809112035A
:103C9000909113030B9690931303809312030C944B
:103CA0002B2D20910B03332727FD309530930503EF
:103CB000209304038091180390911903820F931F9E
:103CC00090931B0380931A03809112039091130326
:103CD0000B9690931303809312030C942B2D209139
:103CE0000B03332727FD30953093050320930403FE
:103CF0008091160390911703820F931F90931B03DB
:103D000080931A0380911203909113030B96909362
:103D10001303809312030C942B2D20910B03332754
:103D200027FD3095309305032093040380911403FD
:103D300090911503820F931F90931B0380931A0396
:103D400080911203909113030B9690931303809329
:103D500012030C942B2D20910B03332727FD309554
:103D6000309305032093040380911E0387FD0AC04E
:103D700080911A0390911B03820F931F90931B0352
:103D800080931A0380911203909113030A969093E3
:103D90001303809312030C942B2D20910B033327D4
:103DA00027FD3095309305032093040380911E0373
:103DB00087FD0AC08091180390911903820F931F09
:103DC00090931B0380931A03809112039091130325
:103DD0000A9690931303809312030C942B2D209139
:103DE0000B03332727FD30953093050320930403FD
:103DF00080911E0387FD0AC08091160390911703DE
:103E0000820F931F90931B0380931A0380911203D8
:103E1000909113030A9690931303809312030C94CA
:103E20002B2D20910B03332727FD3095309305036D
:103E30002093040380911E0387FD0AC08091140320
:103E400090911503820F931F90931B0380931A0385
:103E500080911203909113030A9690931303809319
:103E600012030C942B2D20910B03332727FD309543
:103E7000309305032093040380911E0381110AC02F
:103E800080911A0390911B03820F931F90931B0341
:103E900080931A0380911203909113030A969093D2
:103EA0001303809312030C942B2D20910B033327C3
:103EB00027FD3095309305032093040380911E0362
:103EC00081110AC08091180390911903820F931FEA
:103ED00090931B0380931A03809112039091130314
:103EE0000A9690931303809312030C942B2D209128
:103EF0000B03332727FD30953093050320930403EC
:103F000080911E0381110AC08091160390911703BE
:103F1000820F931F90931B0380931A0380911203C7
:103F2000909113030A9690931303809312030C94B9
:103F30002B2D20910B03332727FD3095309305035C
:103F40002093040380911E0381110AC08091140301
:103F500090911503820F931F90931B0380931A0374
:103F600080911203909113030A9690931303809308
:103F700012030C942B2D20910B03332727FD309532
:103F8000309305032093040380911E03882351F08E
:103F900080911A0390911B03820F931F90931B0330
:103FA00080931A0380911203909113030A969093C1
:103FB0001303809312030C942B2D20910B033327B2
:103FC00027FD3095309305032093040380911E0351
:103FD000882351F08091180390911903820F931F49
:103FE00090931B0380931A03809112039091130303
:103FF0000A9690931303809312030C942B2D209117
:104000000B03332727FD30953093050320930403DA
:1040100080911E03882351F080911603909117031D
:10402000820F931F90931B0380931A0380911203B6
:10403000909113030A9690931303809312030C94A8
:104040002B2D20910B03332727FD3095309305034B
:104050002093040380911E03882351F08091140360
:1040600090911503820F931F90931B0380931A0363
:1040700080911203909113030A96909313038093F7
:1040800012030C942B2D20910B03332727FD309521
:10409000309305032093040380911A0390911B032E
:1040A000820F931F909309038093080300DA809195
:1040B0000D038F5F80931E0380930D03DFD98091E2
:1040C0001203909113034696909313038093120367
:1040D0000C942B2D20910B03332727FD3095309323
:1040E0000503209304038091180390911903820F14
:1040F000931F9093090380930803D9D980910D03EE
:104100008F5F80931E0380930D03B8D980911203B3
:1041100090911303469690931303809312030C948B
:104120002B2D20910B03332727FD3095309305036A
:10413000209304038091160390911703820F931F1D
:104140009093090380930803B2D980910D038F5F88
:1041500080931E0380930D0391D980911203909157
:104160001303469690931303809312030C942B2D04
:1041700020910B03332727FD3095309305032093BF
:1041800004038091140390911503820F931F909361
:104190000903809308038BD980910D038F5F80936F
:1041A0001E0380930D036AD980911203909113032B
:1041B000469690931303809312030C942B2D209119
:1041C0000B03332727FD3095309305032093040319
:1041D00080911A0390911B03820F931F9093090300
:1041E0008093080364D980910D03815080931E034E
:1041F00080930D0343D98091120390911303469647
:1042000090931303809312030C942B2D20910B0396
:10421000332727FD309530930503209304038091C5
:10422000180390911903820F931F909309038093B1
:1042300008033DD980910D03815080931E03809324
:104240000D031CD98091120390911303469690930D
:104250001303809312030C942B2D20910B0333270F
:1042600027FD3095309305032093040380911603B6
:1042700090911703820F931F909309038093080373
:1042800016D980910D03815080931E0380930D03F6
:10429000F5D88091120390911303469690931303DF
:1042A000809312030C942B2D20910B03332727FDB1
:1042B000309530930503209304038091140390916B
:1042C0001503820F931F9093090380930803EFD87F
:1042D00080910D03815080931E0380930D03CED8EF
:1042E0008091120390911303469690931303809349
:1042F00012030C942B2D20910B03203811F42091E4
:104300001D03332727FD30953093050320930403C5
:1043100080911A0390911B03820F931F90930903BE
:1043200080930803C4D880910D0380931E0380916D
:1043300012039091130342969093130380931203F8
:104340000C942B2D20910B03203811F420911D0388
:10435000332727FD30953093050320930403809184
:10436000180390911903820F931F90930903809370
:1043700008039DD880910D0380931E038091120342
:1043800090911303429690931303809312030C941D
:104390002B2D20910B03203811F420911D0333277E
:1043A00027FD309530930503209304038091160375
:1043B00090911703820F931F909309038093080332
:1043C00076D880910D0380931E0380911203909103
:1043D0001303429690931303809312030C942B2D96
:1043E00020910B03203811F420911D03332727FD62
:1043F000309530930503209304038091140390912A
:104400001503820F931F90930903809308034FD8DD
:1044100080910D0380931E038091120390911303EA
:10442000429690931303809312030C942B2D80914A
:104430000B0380931E0380911203909113030A963D
:1044400090931303809312030C942B2D20910B0354
:10445000203811F420911D03332727FD3095309328
:1044600005032093040327FF0AC08091180390914D
:104470001903820F931F909319038093180380915F
:1044800018039091190390930903809308030FD8A0
:1044900080910D0380931E03209104033091050346
:1044A00027FD0AC08091180390911903820F931F72
:1044B0009093190380931803809112039091130332
:1044C000429690931303809312030C942B2D20910A
:1044D0000B03203811F420911D03332727FD30955D
:1044E000309305032093040327FF0AC0809116032D
:1044F00090911703820F931F9093170380931603D5
:1045000080911603909117039093090380930803F9
:104510000E94571A80910D0380931E03209104037B
:104520003091050327FD0AC080911603909117036F
:10453000820F931F909317038093160380911203A9
:1045400090911303429690931303809312030C945B
:104550002B2D20910B03203811F420911D033327BC
:1045600027FD3095309305032093040327FF0AC0ED
:104570008091140390911503820F931F909315035C
:104580008093140380911403909115039093090371
:10459000809308030E94571A80910D0380931E0395
:1045A000209104033091050327FD0AC08091140374
:1045B00090911503820F931F90931503809314031A
:1045C000809112039091130342969093130380936A
:1045D00012030C942B2D20910B03203811F4209101
:1045E0001D03332727FD30953093050320930403E3
:1045F00080911A0390911B03820F931F90930903DC
:104600008093080380911E0380930D030E943E1A3D
:104610008091120390911303429690931303809319
:1046200012030C942B2D20910B03203811F42091B0
:104630001D03332727FD3095309305032093040392
:104640008091180390911903820F931F909309038F
:104650008093080380911E0380930D030E943E1AED
:1046600080911203909113034296909313038093C9
:1046700012030C942B2D20910B03203811F4209160
:104680001D03332727FD3095309305032093040342
:104690008091160390911703820F931F9093090343
:1046A0008093080380911E0380930D030E943E1A9D
:1046B0008091120390911303429690931303809379
:1046C00012030C942B2D20910B03203811F4209110
:1046D0001D03332727FD30953093050320930403F2
:1046E0008091140390911503820F931F90930903F7
:1046F0008093080380911E0380930D030E943E1A4D
:104700008091120390911303429690931303809328
:1047100012030C942B2D20910B03203811F42091BF
:104720001D03332727FD30953093050320930403A1
:1047300027FF0AC08091180390911903820F931FDD
:104740009093190380931803809118039091190393
:10475000909309038093080380911E0380930D03B7
:104760000E943E1A209104033091050327FD0AC0E0
:104770008091180390911903820F931F909319034E
:1047800080931803809112039091130342969093A3
:104790001303809312030C942B2D20910B032038CC
:1047A00011F420911D03332727FD30953093050325
:1047B0002093040327FF0AC08091160390911703EA
:1047C000820F931F90931703809316038091160313
:1047D00090911703909309038093080380911E031F
:1047E00080930D030E943E1A20910403309105032B
:1047F00027FD0AC08091160390911703820F931F23
:1048000090931703809316038091120390911303E2
:10481000429690931303809312030C942B2D2091B6
:104820000B03203811F420911D03332727FD309509
:10483000309305032093040327FF0AC080911403DB
:1048400090911503820F931F909315038093140387
:1048500080911403909115039093090380930803AA
:1048600080911E0380930D030E943E1A2091040341
:104870003091050327FD0AC0809114039091150320
:10488000820F931F9093150380931403809112035A
:1048900090911303429690931303809312030C9408
:1048A0002B2D20910B03203811F420911D03332769
:1048B00027FD3095309305032093040380911A035C
:1048C00090911B03820F931F909309038093080319
:1048D0000E94571A80911E0390910D0389238093A3
:1048E0001E03809112039091130342969093130339
:1048F000809312030C942B2D20910B03203811F47C
:1049000020911D03332727FD309530930503209315
:1049100004038091180390911903820F931F9093C1
:104920000903809308030E94571A80911E039091F7
:104930000D03892380931E0380911203909113032A
:10494000429690931303809312030C942B2D209185
:104950000B03203811F420911D03332727FD3095D8
:10496000309305032093040380911603909117035D
:10497000820F931F90930903809308030E94571A94
:1049800080911E0390910D03892380931E038091D3
:104990001203909113034296909313038093120392
:1049A0000C942B2D20910B03203811F420911D0322
:1049B000332727FD3095309305032093040380911E
:1049C000140390911503820F931F90930903809312
:1049D00008030E94571A80911E0390910D038923AA
:1049E00080931E038091120390911303429690933B
:1049F0001303809312030C942B2D80911E0390912E
:104A00000B03892380931E0380911203909113035B
:104A10000A9690931303809312030C942B2D2091EC
:104A20000B03203811F420911D03332727FD309507
:104A3000309305032093040327FF0AC080911803D5
:104A400090911903820F931F909319038093180379
:104A500080911803909119039093090380930803A0
:104A60000E94571A80911E0390910D038923809311
:104A70001E03209104033091050327FD0AC0809195
:104A8000180390911903820F931F90931903809339
:104A9000180380911203909113034296909313038D
:104AA00080931203D8C720910B03203811F4209172
:104AB0001D03332727FD309530930503209304030E
:104AC00027FF0AC08091160390911703820F931F4E
:104AD0009093170380931603809116039091170308
:104AE00090930903809308030E94571A80911E0334
:104AF00090910D03892380931E032091040330912C
:104B0000050327FD0AC08091160390911703820FB9
:104B1000931F909317038093160380911203909133
:104B200013034296909313038093120394C720912A
:104B30000B03203811F420911D03332727FD3095F6
:104B4000309305032093040327FF0AC080911403C8
:104B500090911503820F931F909315038093140374
:104B60008091140390911503909309038093080397
:104B70000E94571A80911E0390910D038923809300
:104B80001E03209104033091050327FD0AC0809184
:104B9000140390911503820F931F90931503809334
:104BA0001403809112039091130342969093130380
:104BB0008093120350C720910B03203811F42091E9
:104BC0001D03332727FD30953093050320930403FD
:104BD00080911A0390911B03820F931F90930903F6
:104BE000809308030E94571A80911E0390910D0331
:104BF000892B80931E038091120390911303429698
:104C0000909313038093120326C720910B0320383F
:104C100011F420911D03332727FD309530930503B0
:104C2000209304038091180390911903820F931F1E
:104C300090930903809308030E94571A80911E03E2
:104C400090910D03892B80931E0380911203909104
:104C5000130342969093130380931203FCC6209192
:104C60000B03203811F420911D03332727FD3095C5
:104C7000309305032093040380911603909117034A
:104C8000820F931F90930903809308030E94571A81
:104C900080911E0390910D03892B80931E038091B8
:104CA000120390911303429690931303809312037F
:104CB000D2C620910B03203811F420911D03332715
:104CC00027FD30953093050320930403809114034E
:104CD00090911503820F931F90930903809308030B
:104CE0000E94571A80911E0390910D03892B809387
:104CF0001E03809112039091130342969093130325
:104D000080931203A8C680911E0390910B03892BF8
:104D100080931E0380911203909113030A9690933F
:104D200013038093120397C620910B03203811F4CC
:104D300020911D03332727FD3095309305032093E1
:104D4000040327FF0AC08091180390911903820F72
:104D5000931F9093190380931803809118039091E7
:104D6000190390930903809308030E94571A8091B6
:104D70001E0390910D03892B80931E032091040341
:104D80003091050327FD0AC0809118039091190303
:104D9000820F931F9093190380931803809112033D
:104DA000909113034296909313038093120353C67A
:104DB00020910B03203811F420911D03332727FD88
:104DC0003095309305032093040327FF0AC0809198
:104DD000160390911703820F931F909317038093EC
:104DE0001603809116039091170390930903809303
:104DF00008030E94571A80911E0390910D03892B7E
:104E000080931E03209104033091050327FD0AC0FF
:104E10008091160390911703820F931F90931703AD
:104E200080931603809112039091130342969093FE
:104E30001303809312030FC620910B03203811F443
:104E400020911D03332727FD3095309305032093D0
:104E5000040327FF0AC08091140390911503820F69
:104E6000931F9093150380931403809114039091E2
:104E7000150390930903809308030E94571A8091A9
:104E80001E0390910D03892B80931E032091040330
:104E90003091050327FD0AC08091140390911503FA
:104EA000820F931F90931503809314038091120334
:104EB0009091130342969093130380931203CBC5F2
:104EC00020910B03203811F420911D03332727FD77
:104ED0003095309305032093040380911A03909139
:104EE0001B03820F931F90930903809308030E9472
:104EF000571A80911E0390910D03892780931E03FA
:104F00008091120390911303429690931303809320
:104F10001203A1C520910B03203811F420911D0329
:104F2000332727FD309530930503209304038091A8
:104F3000180390911903820F931F90930903809394
:104F400008030E94571A80911E0390910D03892730
:104F500080931E03809112039091130342969093C5
:104F600013038093120377C520910B03203811F4AB
:104F700020911D03332727FD30953093050320939F
:104F800004038091160390911703820F931F90934F
:104F90000903809308030E94571A80911E03909181
:104FA0000D03892780931E038091120390911303B0
:104FB000429690931303809312034DC520910B03E7
:104FC000203811F420911D03332727FD30953093AD
:104FD0000503209304038091140390911503820F1D
:104FE000931F90930903809308030E94571A80919E
:104FF0001E0390910D03892780931E038091120355
:10500000909113034296909313038093120323C548
:1050100080911E0390910B03892780931E0380913A
:105020001203909113030A96909313038093120333
:1050300012C520910B03203811F420911D03332752
:1050400027FD3095309305032093040327FF0AC002
:105050008091180390911903820F931F9093190365
:10506000809318038091180390911903909309037A
:10507000809308030E94571A80911E0390910D039C
:10508000892780931E03209104033091050327FD97
:105090000AC08091180390911903820F931F909377
:1050A0001903809318038091120390911303429681
:1050B0009093130380931203CEC420910B032038E6
:1050C00011F420911D03332727FD309530930503FC
:1050D0002093040327FF0AC08091160390911703C1
:1050E000820F931F909317038093160380911603EA
:1050F0009091170390930903809308030E94571A15
:1051000080911E0390910D03892780931E032091A7
:1051100004033091050327FD0AC080911603909186
:105120001703820F931F90931703809316038091A8
:1051300012039091130342969093130380931203EA
:105140008AC420910B03203811F420911D033327CA
:1051500027FD3095309305032093040327FF0AC0F1
:105160008091140390911503820F931F9093150360
:105170008093140380911403909115039093090375
:10518000809308030E94571A80911E0390910D038B
:10519000892780931E03209104033091050327FD86
:1051A0000AC08091140390911503820F931F90936E
:1051B0001503809314038091120390911303429678
:1051C000909313038093120346C420910B0320385D
:1051D00011F420911D03332727FD309530930503EB
:1051E0002093040380911A0390911B03820F931F55
:1051F00090930903809308030E94571A0E94021A91
:105200008091120390911303479690931303809318
:10521000120321C420910B03203811F420911D03A7
:10522000332727FD309530930503209304038091A5
:10523000180390911903820F931F90930903809391
:1052400008030E94571A0E94021A8091120390913B
:10525000130347969093130380931203FCC320918A
:105260000B03203811F420911D03332727FD3095BF
:105270003093050320930403809116039091170344
:10528000820F931F90930903809308030E94571A7B
:105290000E94021A809112039091130347969093F3
:1052A000130380931203D7C320910B03203811F40A
:1052B00020911D03332727FD30953093050320935C
:1052C00004038091140390911503820F931F909310
:1052D0000903809308030E94571A0E94021A8091C2
:1052E0001203909113034796909313038093120334
:1052F000B2C380910B0380930D030E94021A809128
:105300001203909113030F9690931303809312034B
:10531000A2C320910B03203811F420911D033327E1
:1053200027FD3095309305032093040327FF0AC01F
:105330008091180390911903820F931F9093190382
:105340008093180380911803909119039093090397
:10535000809308030E94571A0E94021A20910403A6
:105360003091050327FD0AC080911803909119031D
:10537000820F931F90931903809318038091120357
:10538000909113034796909313038093120363C382
:1053900020910B03203811F420911D03332727FDA2
:1053A0003095309305032093040327FF0AC08091B2
:1053B000160390911703820F931F90931703809306
:1053C000160380911603909117039093090380931D
:1053D00008030E94571A0E94021A20910403309178
:1053E000050327FD0AC08091160390911703820FD1
:1053F000931F90931703809316038091120390914B
:1054000013034796909313038093120324C32091B0
:105410000B03203811F420911D03332727FD30950D
:10542000309305032093040327FF0AC080911403DF
:1054300090911503820F931F90931503809314038B
:1054400080911403909115039093090380930803AE
:105450000E94571A0E94021A2091040330910503FA
:1054600027FD0AC08091140390911503820F931FAA
:10547000909315038093140380911203909113036A
:1054800047969093130380931203E5C220910B0378
:10549000203811F420911D03332727FD30953093D8
:1054A00005032093040380911A0390911B03820F3C
:1054B000931F90930903809308030E94571A0E9438
:1054C000DD19809112039091130343969093130377
:1054D00080931203C0C220910B03203811F4209155
:1054E0001D03332727FD30953093050320930403D4
:1054F0008091180390911903820F931F90930903D1
:10550000809308030E94571A0E94DD1980911203AC
:1055100090911303439690931303809312039BC2BD
:1055200020910B03203811F420911D03332727FD10
:1055300030953093050320930403809116039091D6
:105540001703820F931F90930903809308030E940F
:10555000571A0E94DD19809112039091130343960C
:10556000909313038093120376C220910B0320388B
:1055700011F420911D03332727FD30953093050347
:10558000209304038091140390911503820F931FBD
:1055900090930903809308030E94571A0E94DD1913
:1055A0008091120390911303439690931303809379
:1055B000120351C280910B0380930D030E94DD19E9
:1055C00080911203909113030B9690931303809391
:1055D000120341C220910B03203811F420911D03C6
:1055E000332727FD3095309305032093040327FFCD
:1055F0000AC08091180390911903820F931F909312
:1056000019038093180380911803909119039093C4
:105610000903809308030E94571A0E94DD19209104
:1056200004033091050327FD0AC08091180390916F
:105630001903820F931F909319038093180380918D
:1056400012039091130343969093130380931203D4
:1056500002C220910B03203811F420911D0333273F
:1056600027FD3095309305032093040327FF0AC0DC
:105670008091160390911703820F931F9093170345
:10568000809316038091160390911703909309035A
:10569000809308030E94571A0E94DD192091040389
:1056A0003091050327FD0AC08091160390911703DE
:1056B000820F931F90931703809316038091120318
:1056C0009091130343969093130380931203C3C1E5
:1056D00020910B03203811F420911D03332727FD5F
:1056E0003095309305032093040327FF0AC080916F
:1056F000140390911503820F931F909315038093C9
:1057000014038091140390911503909309038093DF
:1057100008030E94571A0E94DD192091040330915A
:10572000050327FD0AC08091140390911503820F91
:10573000931F90931503809314038091120390910B
:1057400013034396909313038093120384C1209113
:105750000B03203811F420911D03332727FD3095CA
:10576000309305032093040380911A0390911B0347
:10577000820F931F90930903809308030E94571A86
:1057800080910D03809580930D030E94DD19809117
:105790001203909113034496909313038093120382
:1057A0005AC120910B03203811F420911D03332797
:1057B00027FD30953093050320930403809118034F
:1057C00090911903820F931F90930903809308030C
:1057D0000E94571A80910D03809580930D030E94BB
:1057E000DD19809112039091130344969093130353
:1057F0008093120330C120910B03203811F42091C3
:105800001D03332727FD30953093050320930403B0
:105810008091160390911703820F931F90930903B1
:10582000809308030E94571A80910D0380958093FE
:105830000D030E94DD198091120390911303449689
:10584000909313038093120306C120910B03203819
:1058500011F420911D03332727FD30953093050364
:10586000209304038091140390911503820F931FDA
:1058700090930903809308030E94571A80910D03A7
:10588000809580930D030E94DD1980911203909101
:10589000130344969093130380931203DCC080910A
:1058A0000B03809580930D030E94DD1980911203F4
:1058B000909113030C969093130380931203CBC023
:1058C00020910B03203811F420911D03332727FD6D
:1058D0003095309305032093040327FF0AC080917D
:1058E000180390911903820F931F909319038093CB
:1058F00018038091180390911903909309038093E2
:1059000008030E94571A80910D03809580930D0320
:105910000E94DD19209104033091050327FD0AC080
:105920008091180390911903820F931F909319038C
:1059300080931803809112039091130344969093DF
:1059400013038093120387C020910B03203811F4B6
:1059500020911D03332727FD3095309305032093B5
:10596000040327FF0AC08091160390911703820F4A
:10597000931F9093170380931603809116039091C1
:10598000170390930903809308030E94571A80918C
:105990000D03809580930D030E94DD19209104036F
:1059A0003091050327FD0AC08091160390911703DB
:1059B000820F931F90931703809316038091120315
:1059C000909113034496909313038093120343C062
:1059D00020910B03203811F420911D03332727FD5C
:1059E0003095309305032093040327FF0AC080916C
:1059F000140390911503820F931F909315038093C6
:105A000014038091140390911503909309038093DC
:105A100008030E94571A80910D03809580930D030F
:105A20000E94DD19209104033091050327FD0AC06F
:105A30008091140390911503820F931F9093150387
:105A400080931403809112039091130344969093D2
:105A500013038093120380911203909113038031FA
:105A600027E2920780F0805197429093130380932E
:105A700012030E94E71882E00E947419882329F01B
:105A80000E94B91A02C080E001C082E3DF91CF9189
:105A90001F910F9108953F924F925F926F927F9264
:105AA0008F929F92AF92BF92CF92DF92EF92FF922E
:105AB0000F931F93CF93DF9300D01F92CDB7DEB724
:105AC0008B0129013A0190910402981721F09F3F20
:105AD00009F0B2C204C0E6E1FBE2349004C1809355
:105AE0000402E6E1FBE2E491EF3F09F4A5C2E230F3
:105AF00009F480C074F5EE2309F45BC0E13009F0CD
:105B0000F1C0109280001092810090918100986005
:105B10009093810090918100916090938100282F53
:105B200030E0F901ED55F44DE491F0E0EE0FFF1F88
:105B3000ED5FF34D4591549150933D1740933C17C1
:105B4000F901E35AF44D249120933B173324339405
:105B5000CCC0E43009F49EC00CF474C0E53009F008
:105B6000C1C01092200110922101909121019860F2
:105B70009093210190912101916090932101282F10
:105B800030E0F901ED55F44DE491F0E0EE0FFF1F28
:105B9000ED5FF34D45915491509321174093201799
:105BA000F901E35AF44D249120931F1755E0352E47
:105BB0009CC014BC15BC94B5926094BD95B5916021
:105BC00095BD282F30E0F901ED55F44DE491F0E05A
:105BD000EE0FFF1FED5FF34D459154915093441725
:105BE00040934317F901E35AF44D2491209342174F
:105BF000312C7BC01092B0001092B1009091B00097
:105C000092609093B0009091B10091609093B10038
:105C1000282F30E0F901ED55F44DE491F0E0EE0F5E
:105C2000FF1FED5FF34D459154915093361740930C
:105C30003517F901E35AF44D24912093341722E0EB
:105C4000322E53C0109290001092910090919100CA
:105C50009860909391009091910091609093910041
:105C6000282F30E0F901ED55F44DE491F0E0EE0F0E
:105C7000FF1FED5FF34D4591549150932F174093C3
:105C80002E17F901E35AF44D249120932D17B3E018
:105C90003B2E2BC01092A0001092A1009091A10069
:105CA00098609093A1009091A10091609093A100C1
:105CB000282F30E0F901ED55F44DE491F0E0EE0FBE
:105CC000FF1FED5FF34D459154915093281740937A
:105CD0002717F901E35AF44D24912093261774E015
:105CE000372E03C03E2E37FCA7C161E0D3D3480155
:105CF000A12CB12C832D8D7F09F0C1C060E072E131
:105D00008AE790E0A501940181D729833A834B83E8
:105D10005C8369017A0181E0C81AD108E108F108C1
:105D20009FEFC916D104E104F10409F008F495C00D
:105D300060E472E48FE090E0A501940167D7690107
:105D40007A01E1E0CE1AD108E108F108F2E03F1251
:105D500018C08FEFC816D104E104F10409F008F46B
:105D600086C060E970ED83E090E0A50194014ED714
:105D700069017A0191E0C91AD108E108F10883E0CC
:105D800001C082E0EFEFCE16D104E104F10409F086
:105D900008F464C068E478EE81E090E0A501940125
:105DA00035D769017A01F1E0CF1AD108E108F1088D
:105DB0003320D9F082E038121AC09FEFC916D104FF
:105DC000E104F10409F008F435C164E274EF80E005
:105DD00090E0A50194011AD769017A01E1E0CE1A99
:105DE000D108E108F10885E003C083E001C084E048
:105DF000FFEFCF16D104E104F10481F178F162E103
:105E00007AE780E090E0A501940100D769017A016A
:105E100081E0C81AD108E108F108311002C084E01D
:105E200001C086E09FEFC916D104E104F104B1F08E
:105E3000A8F0C980DA80EB80FC809AE0F594E794C2
:105E4000D794C7949A95D1F7E1E0CE1AD108E1082A
:105E5000F108332031F087E00BC081E0332011F0EE
:105E600007C085E095B5987F982B95BD54C082E01A
:105E70009091B100987F982B9093B1004CC060E056
:105E800072E18AE790E0A5019401C0D669017A0128
:105E9000F1E0CF1AD108E108F108C114D10481E082
:105EA000E806F10480F068E478EE81E090E0A50176
:105EB0009401ACD669017A0191E0C91AD108E108D0
:105EC000F10893E001C091E0E1E03E1207C080914B
:105ED0008100887F892B809381001DC0F3E03F12F1
:105EE00007C080919100887F892B8093910013C017
:105EF00084E0381207C08091A100887F892B8093AD
:105F0000A10009C0E5E03E1206C080912101887F12
:105F1000892B80932101411451046104710461F0C3
:105F2000D801AA0FBB1FA301920192D628EE33E03D
:105F300040E050E049D603C02FEF3FEFA901F2E067
:105F40003F1609F443C0F315BCF0332081F181E022
:105F5000381272C0D0928900C092880020933E17F8
:105F600030933F17409340175093411780916F0033
:105F7000826080936F0060C094E0391609F448C0D5
:105F80003916A4F1E5E03E1257C0D0922901C09223
:105F900028012093221730932317409324175093FE
:105FA00025178091730082608093730045C0C7BC41
:105FB000209345173093461740934717509348173F
:105FC00080916E00826080936E0036C0C092B300F4
:105FD00020933717309338174093391750933A1757
:105FE0008091700082608093700026C0D0929900EA
:105FF000C092980020933017309331174093321796
:10600000509333178091710082608093710014C0A7
:10601000D092A900C092A8002093291730932A1784
:1060200040932B1750932C178091720082608093BD
:10603000720002C084E01CCF0F900F900F900F9061
:10604000DF91CF911F910F91FF90EF90DF90CF9054
:10605000BF90AF909F908F907F906F905F904F9088
:106060003F9008958230A9F028F4882349F08130C8
:1060700051F00895843021F1E8F0853039F1089528
:1060800010926E00089580916F008D7F80936F0055
:106090000895809170008D7F8093700081E08093DF
:1060A000B0008091B100887F84608093B10010922D
:1060B000B3000895809171008D7F809371000895E1
:1060C000809172008D7F809372000895809173009B
:1060D0008D7F809373000895CF93C82F8091040221
:1060E0008C1307C0E6E1FBE284919FEF90930402DA
:1060F00001C08FEFB7DF60E08C2FCF9104C21F92F9
:106100000F920FB60F9211240BB60F922F933F935D
:106110004F935F936F937F938F939F93AF93BF93AF
:10612000EF93FF938091371790913817A09139170B
:10613000B0913A17892B8A2B8B2B51F19091341700
:10614000E0913517F09136178081892780838091FF
:10615000371790913817A0913917B0913A17181640
:1061600019061A061B06BCF4809137179091381750
:10617000A0913917B0913A170197A109B1098093FD
:10618000371790933817A0933917B0933A1703C075
:1061900080910402A1DFFF91EF91BF91AF919F9198
:1061A0008F917F916F915F914F913F912F910F90C0
:1061B0000BBE0F900FBE0F901F9018950895B5D08D
:1061C000FDDF0E949419C0E0D0E00E94951920974D
:1061D000E1F30E940000F9CF1F920F920FB60F92C9
:1061E00011242F933F938F939F93AF93BF938091ED
:1061F0004A1790914B17A0914C17B0914D173091C1
:10620000491723E0230F2D3720F40196A11DB11D5E
:1062100005C026E8230F0296A11DB11D2093491742
:1062200080934A1790934B17A0934C17B0934D1738
:1062300080914E1790914F17A0915017B091511720
:106240000196A11DB11D80934E1790934F17A093F7
:106250005017B0935117BF91AF919F918F913F917C
:106260002F910F900FBE0F901F9018952FB7F89495
:1062700060914A1770914B1780914C1790914D1770
:106280002FBF08953FB7F89480914E1790914F1704
:10629000A0915017B091511726B5A89B05C02F3F6C
:1062A00019F00196A11DB11D3FBF6627782F892FD8
:1062B0009A2F620F711D811D911D42E0660F771F9D
:1062C000881F991F4A95D1F70895CF92DF92EF92D8
:1062D000FF92CF93DF936B017C01D4DFEB01C114FC
:1062E000D104E104F10479F06BD1CCDF6C1B7D0BA0
:1062F000683E7340A0F381E0C81AD108E108F108B4
:10630000C851DC4FECCFDF91CF91FF90EF90DF9041
