:100000000C94371D0C94F33A0C941E3B0C94493B12
:100010000C94743B0C949F3B0C94CA3B0C94F53BA2
:100020000C94203C0C94681D0C94681D0C94681D65
:100030000C94681D0C94E6360C94681D0C94681D95
:100040000C94681D0C94681D0C94681D0C94681D1C
:100050000C94681D0C94681D0C94681D0C94533707
:100060000C94681D0C94681D0C94681D0C94681DFC
:100070000C94681D0C94681D0C94681D0C94681DEC
:100080000C94681D0C94681D0C94681D0C94681DDC
:100090000C94681D0C94681D0C94681D0C94681DCC
:1000A0000C94681D0C94681D0C94681D0C94681DBC
:1000B0000C94681D0C94681D0C94681D0C94681DAC
:1000C0000C94681D0C94681D0C94681D0C94681D9C
:1000D0000C94681D0C94681D0C94681D0C94681D8C
:1000E0000C94681D9C21A721BC21C921D721E7219F
:1000F000F7210522212292339233923392339233A5
:1001000092339233923392339233923392339233C7
:100110009233923392332C22923392333E225022E6
:10012000672279229233923392339233923392330D
:100130009233923392339233923392339233923397
:10014000923392339722B322CF22EB22072322232A
:100150003D23582392339233923392337323862371
:10016000A523C423E3239233923392339233923301
:100170009233923392339233923392339233923357
:1001800092339233F22392339233923392339233F7
:1001900092339233042492339233923392339233D4
:1001A00092339233162492339233923392339233B2
:1001B0009233923328249233923392339233923390
:1001C0009233923338249233923392339233923370
:1001D0009233923348249233923392339233923350
:1001E00092339233923392339233923392339233E7
:1001F00092339233923392339233923392339233D7
:10020000923359249924B724D524F3241125332576
:10021000552577259925BB25DD25FF252126432654
:1002200065268726923392339233923392339233F8
:1002300092339233A926D026F7261E279233923383
:100240009233923392339233923392339233923386
:100250009233923345276C279327BA2792339233F0
:1002600092339233E12708282F2856287D288C289E
:10027000CE28102952297A29A229CA299233F22993
:10028000342A762AB82AE32A0E2B392B642B762BB4
:10029000BA2BFE2B422C6C2C962CC02CEA2CFB2C5F
:1002A0003F2D832DC72DF12D1B2E452E6F2E802E19
:1002B000C42E082F4C2F712F962FBB2FE02FF02F1D
:1002C0002F306E30AD30D230F7301C3141315131EA
:1002D0009031CF310E32383262328C32B632C73280
:1002E0000B334F337638793868386C387238B03819
:1002F0007D38813887388B388F38953899389D38D4
:10030000B038A338A738AB38CD3A973A9F3AAB3AD2
:10031000B83AD93AE63A3800440054005C00580034
:1003200040003C0000001800240042007E00420013
:100330004200420000007C00220022003C0022001B
:1003400022007C0000001C00220040004000400011
:1003500022001C000000780024002200220022005D
:100360002400780000007E0040004000780040003B
:1003700040007E0000007E00400040007800400009
:100380004000400000001C00220040004E004200DF
:1003900022001C0000004200420042007E00420099
:1003A0004200420000001C0008000800080008008D
:1003B00008001C0000000E000400040004000400FB
:1003C000440038000000420044004800700048002B
:1003D0004400420000004000400040004000400057
:1003E00040007E000000420066005A005A004200B1
:1003F0004200420000004200620052004A004600F3
:100400004200420000001800240042004200420066
:100410002400180000007C00420042007C004000E4
:1004200040004000000018002400420042004A0042
:1004300024001A0000007C00420042007C004800BA
:100440004400420000003C00420040003C0002002A
:1004500042003C0000003E000800080008000800C0
:100460000800080000004200420042004200420032
:1004700042003C00000042004200420024002400F0
:100480001800180000004200420042005A005A00C2
:1004900066004200000042004200240018002400D0
:1004A0004200420000002200220022001C0008003E
:1004B0000800080000007C00040008001000200074
:1004C00040007C0000007C00600060006000600074
:1004D00060007C00000000004000200010000800C8
:1004E0000400000000007C000C000C000C000C005C
:1004F0000C007C00000000000000100028004400F8
:1005000000000000000000000000000000000000EB
:1005100000007C000000000000000000000000005F
:10052000000000000000100010001000100010007B
:100530000000100000002800280028000000000033
:10054000000000000000280028007C0028007C003B
:1005500028002800000010003C0050003800140063
:100560007800100000006000640008001000200007
:100570004C000C00000020005000500020005400EF
:1005800048003400000010001000100000000000BF
:10059000000000000000100020004000400040006B
:1005A00020001000000010000800040004000400F7
:1005B000080010000000100054003800100038003F
:1005C0005400100000000000100010007C0010001B
:1005D00010000000000000000000000000001000FB
:1005E0001000200000000000000000007C0000005F
:1005F00000000000000000000000000000000000FB
:10060000000010000000000004000800100020009E
:100610004000000000003C00420046005A0062001A
:1006200042003C00000008001800280008000800F4
:1006300008003E0000003C00420002000C003000B8
:1006400040007E0000003C00420002003C0002002E
:1006500042003C00000004000C00140024007E0056
:100660000400040000007E00400078000400020046
:100670004400380000001C00200040007C004200C4
:1006800042003C0000007E00420004000800100010
:100690001000100000003C00420042003C004200FC
:1006A00042003C0000003C00420042003E000200CC
:1006B00004003800000000000000100000001000DE
:1006C000000000000000000000001000000010000A
:1006D0001000200000000800100020004000200052
:1006E000100008000000000000007C0000007C00FA
:1006F00000000000000020001000080004000800B6
:100700001000200000003800440008001000100015
:1007100000001000000000000000000000000000C9
:10072000000000000000F000F000F00000000000F9
:100730000000000000000F000F000F00000000008C
:10074000000000000000FF00FF00FF0000000000AC
:10075000000000000000000000000000F000F000B9
:10076000000000000000F000F000F000F000F000D9
:100770000000000000000F000F000F00F000F0006C
:10078000000000000000FF00FF00FF00F000F0008C
:100790000000000000000000000000000F000F003B
:1007A000000000000000F000F000F0000F000F005B
:1007B0000000000000000F000F000F000F000F00EE
:1007C000000000000000FF00FF00FF000F000F000E
:1007D000000000000000000000000000FF00FF001B
:1007E000000000000000F000F000F000FF00FF003B
:1007F0000000000000000F000F000F00FF00FF00CE
:10080000000000000000FF00FF00FF00FF00FF00ED
:1008100000000000000000000000000000000000D8
:10082000F000F000F000F000F000F0000000000028
:10083000F000F000F0000F000F000F0000000000BB
:10084000F000F000F000FF00FF00FF0000000000DB
:10085000F000F000F000000000000000F000F000E8
:10086000F000F000F000F000F000F000F000F00008
:10087000F000F000F0000F000F000F00F000F0009B
:10088000F000F000F000FF00FF00FF00F000F000BB
:10089000F000F000F0000000000000000F000F006A
:1008A000F000F000F000F000F000F0000F000F008A
:1008B000F000F000F0000F000F000F000F000F001D
:1008C000F000F000F000FF00FF00FF000F000F003D
:1008D000F000F000F000000000000000FF00FF004A
:1008E000F000F000F000F000F000F000FF00FF006A
:1008F000F000F000F0000F000F000F00FF00FF00FD
:10090000F000F000F000FF00FF00FF00FF00FF001C
:10091000F000F000F0000000000000000000000007
:100920000F000F000F00F000F000F00000000000CA
:100930000F000F000F000F000F000F00000000005D
:100940000F000F000F00FF00FF00FF00000000007D
:100950000F000F000F00000000000000F000F0008A
:100960000F000F000F00F000F000F000F000F000AA
:100970000F000F000F000F000F000F00F000F0003D
:100980000F000F000F00FF00FF00FF00F000F0005D
:100990000F000F000F000000000000000F000F000C
:1009A0000F000F000F00F000F000F0000F000F002C
:1009B0000F000F000F000F000F000F000F000F00BF
:1009C0000F000F000F00FF00FF00FF000F000F00DF
:1009D0000F000F000F00000000000000FF00FF00EC
:1009E0000F000F000F00F000F000F000FF00FF000C
:1009F0000F000F000F000F000F000F00FF00FF009F
:100A00000F000F000F00FF00FF00FF00FF00FF00BE
:100A10000F000F000F0000000000000000000000A9
:100A2000FF00FF00FF00F000F000F00000000000F9
:100A3000FF00FF00FF000F000F000F00000000008C
:100A4000FF00FF00FF00FF00FF00FF0000000000AC
:100A5000FF00FF00FF00000000000000F000F000B9
:100A6000FF00FF00FF00F000F000F000F000F000D9
:100A7000FF00FF00FF000F000F000F00F000F0006C
:100A8000FF00FF00FF00FF00FF00FF00F000F0008C
:100A9000FF00FF00FF000000000000000F000F003B
:100AA000FF00FF00FF00F000F000F0000F000F005B
:100AB000FF00FF00FF000F000F000F000F000F00EE
:100AC000FF00FF00FF00FF00FF00FF000F000F000E
:100AD000FF00FF00FF00000000000000FF00FF001B
:100AE000FF00FF00FF00F000F000F000FF00FF003B
:100AF000FF00FF00FF000F000F000F00FF00FF00CE
:100B0000FF00FF00FF00FF00FF00FF00FF00FF00ED
:100B1000FF00FF00FF0000000000000000000000D8
:100B200000000000FF0000000000000000000000C6
:100B30000000FF00000000000000000000000000B6
:100B4000FF00000000000000000000000000FF00A7
:100B5000000000000000000000000000FF00000096
:100B600000000000000000000000FF000000000086
:100B70000000000000000000FF0000000000000076
:100B8000000000000000FF00000000000000000066
:100B900000000000000080008000800080008000D5
:100BA0008000800080004000400040004000400085
:100BB00040004000400020002000200020002000D5
:100BC0002000200020001000100010001000100075
:100BD00010001000100008000800080008000800BD
:100BE00008000800080004000400040004000400D9
:100BF00004000400040002000200020002000200DF
:100C000002000200020001000100010001000100D9
:100C1000010001000100FF00FE00FC00F800F000F0
:100C2000E000C00080000100030007000F001F006B
:100C30003F007F00FF00FF007F003F001F000F000C
:100C40000700030001008000C000E000F000F80091
:100C5000FC00FE00FF008100420024001800180084
:100C6000240042008100010002000400080010007E
:100C7000200040008000800040002000100008009C
:100C8000040002000100AA005500AA00550000005F
:100C90000000000000000000000000000000AA00AA
:100CA0005500AA005500A0005000A0005000A00070
:100CB0005000A00050000A0005000A0005000A00CC
:100CC00005000A000500AA005500AA005500AA0068
:100CD0005500AA005500FF000100010001000100BD
:100CE00001000100010001000100010001000100FC
:100CF00001000100FF008000800080008000800073
:100D000080008000FF00FF008000800080008000E5
:100D10008000800080006600FF00FF00FF007E0072
:100D20003C00180018003C003C0018004200E7009E
:100D3000E70018003C0018003C007E00FF00FF00A8
:100D40005A0018003C0018003C007E00FF00FF0025
:100D50007E003C001800180018003C007E00FF00D8
:100D6000DB0018003C00300038009C00FF00FF0052
:100D70009C00380030003C001800DB00FF007E00C3
:100D80003C00180018000C001C003900FF00FF0098
:100D900039001C000C000000080008002A003E007A
:100DA0003E003E002200000001000A001C003E0040
:100DB0007C00180010000000F80070007E00700039
:100DC000F80000000000100018007C003E001C002D
:100DD0000A000100000022003E003E003E002A0002
:100DE00008000800000004000C001F003E001C006A
:100DF00028004000000000001F000E007E000E00D2
:100E00001F000000000000008000500038007C003F
:100E10003E001800080018003C005A001800180096
:100E2000180018003C000F0007000F001D00B8005C
:100E3000700020001000000004008200FF00FF008E
:100E4000820004000000100020007000B8001D00A7
:100E50000F0007000F003C001800180018001800D1
:100E60005A003C001800080004000E001D00B800E5
:100E7000F000E000F000000020004100FF00FF0053
:100E8000410020000000F000E000F000B8001D006C
:100E90000E000400080008000800080009000F0008
:100EA0000F001F001F0000004000200013000F0073
:100EB0000F001F001F000000000000000300FF00E3
:100EC0000F001F001F001000100010009000F00025
:100ED000F000F800F800000002000400C800F00074
:100EE000F000F800F800000000000000C000FF0063
:100EF000F000F800F8000000000000002400990055
:100F00005A00FF00000018003C007E007F007E00B9
:100F10003C00080008000000000018003C007E00B3
:100F20007E0056005E0018003D007F00FF00AD000F
:100F3000FF00AD00BF00E000470042007E0042001D
:100F40004700E000000022003E002A0008000800E0
:100F500049007F0041001C001C0008003E00080002
:100F600008001400220000001100D200FC00D20092
:100F7000110000000000000088004B003F004B0003
:100F800088000000000022001400080008003E0055
:100F900008001C001C003C007E00FF00DB00FF007E
:100FA00067007E003C003C0042008100A5008100FB
:100FB000990042003C00180024007E00FF005A0007
:100FC00024000000000000003C007E007E007E0047
:100FD0007E003C00000000003C0042004200420055
:100FE00042003C0000003C00420081008100810082
:100FF000810042003C0001000000000003000300EB
:101000003F007F003F00800080008000C000E300C0
:10101000FF00FF00FE000100010001000300C70007
:10102000FF00FF007F00800000000000C000C00043
:10103000FC00FE00FC00000000007F000400040033
:101040001F00070000000000000018007F00E00003
:10105000F800F8000000000000001800FE00070083
:101060001F001F00000000000000FE002000200004
:10107000F800E0000000000000000100430037001D
:10108000FF00FF00FF0040004000E000E200EC0035
:10109000FF00FE00FC0002000200070047003700CE
:1010A000FF007F003F00000000008000C200EC0055
:1010B000FF00FF00FF000000000000000000FF0034
:1010C000FF00FF00FF00FF00FF00FF00FF00000027
:1010D00000000000000000000000000000000F0001
:1010E0000F000F000F000F000F000F000F00000097
:1010F0000000000000000000000000000000F00000
:10110000F000F000F000F000F000F000F00000004F
:101110000000000000000000310031007B007B0077
:1011200031003100000000008C008C00DE00DE0089
:101130008C008C0000000900050003000F00030074
:10114000050009000000200040008000E000800051
:101150004000200000004100230013000B0011009C
:10116000200041000000040088009000A000100052
:101170000800040000001100250043008F00430018
:10118000250011000000100048008400E2008400E7
:101190004800100000003C0066004200420066006B
:1011A0007E0066003C003C00660042004200660093
:1011B0007E0066003C003C00660042004200660083
:1011C0007E0066003C003C00660042004200660073
:1011D0007E0066003C003C00660042004200660063
:1011E0007E0066003C003C00660042004200660053
:1011F0007E0066003C003C00660042004200660043
:101200007E0066003C003C00660042004200660032
:101210007E0066003C0000000000000000000000AE
:10122000000000000000080008000800080000009E
:1012300000000000000000000000000000000800A6
:10124000080008000800080008000800080008005E
:10125000080008000800000000000000F80000007E
:10126000000000000000080008000800F80000006E
:10127000000000000000000000000000F80008006E
:10128000080008000800080008000800F80008002E
:101290000800080008000000000000000F00000027
:1012A0000000000000000800080008000F00000017
:1012B0000000000000000000000000000F00080017
:1012C0000800080008000800080008000F000800D7
:1012D000080008000800000000000000FF000000F7
:1012E000000000000000080008000800FF000000E7
:1012F000000000000000000000000000FF000800E7
:10130000080008000800080008000800FF000800A6
:10131000080008000800FDB5AE766B022831342CB9
:10132000323534293D31323A2831342C32353529A1
:101330003D303A5052242831342C323534292C2275
:1013400053544152205452454B2056312E30223AAC
:101350005052222843292050535220323031362215
:101360003A50523A2831342C323430293D303A2820
:1013700031342C323431293D373A2831342C32344F
:1013800032293D380057032831342C323433293D7B
:10139000393A2831342C323434293D3235353A2823
:1013A00031342C323435293D303A2831342C323422
:1013B00036293D313A2831342C323437293D302D0D
:1013C000393A2831342C323438293D302D383A28F6
:1013D00031342C323439293D302D37002904505214
:1013E00022534B494C4C20312D39203F223B3A4966
:1013F0004E443A4946443D303B443D353A4B3D30FE
:101400003A493D300057054E3D303A4946213C327D
:101410002A442B33353B4E3D4E2B212F38302B3178
:101420003A4B3D4B2B4E3A4946213C31363B4E3DE3
:101430004E2B3130303A2831342C49293D212F357B
:10144000302B312A31302B4E3A493D492B313A4924
:1014500046493C36343B474F544F35002C06453DFA
:101460003235303A543D343A513D212F343A283107
:10147000342C51293D3136333A50524B2C224B4CAF
:10148000494E474F4E5322005E0A493D36343A508A
:101490005222494E205155414452414E5420223B44
:1014A0003A4E3D512F382A383A2831342C323534CF
:1014B000293D512D4E2B34383A5052242831342CAA
:1014C000323534292C222C223B3A2831342C323527
:1014D00034293D512F382B34383A50522428313496
:1014E0002C32353429006D0B2831342C49293D30FC
:1014F0003A493D492B313A494649233132383B4735
:101500004F544F31313A4E3D2831342C51293A4A0B
:101510003D313A4F3D303A2831342C4A2B31353168
:10152000293D3235353A2831342C4A2B3135322990
:101530003D3235353A2831342C4A2B313533293D6B
:101540003235353A2831342C4A2B313534293D3265
:10155000353500150C49464E2F31302A31303D4E7D
:101560003B474F544F3134006F0D493D212F342BF1
:1015700036343A49462831342C492923303B474FE9
:10158000544F31333A2831342C49293D4A3A4E3DA3
:101590004E2D313A4946393C4A3B474F544F313240
:1015A0003A2831342C4A2B313530293D492D3634F7
:1015B0003A2831342C4A2B313630293D212F313015
:1015C0002B31323A4A3D4A2B313A4F3D4F2B313A7B
:1015D000474F544F313200270E4E3D4E2F31303A97
:1015E0004A3D4A2B313A49464A3C393B4A3D313023
:1015F0003A49464E23303B474F544F3132002A0F71
:10160000533D212F343A49462831342C532B36345C
:101610002923303B474F544F31353A2831342C532E
:101620002B3634293D3132006F1449464B3D303B57
:10163000474F544F3234353A493D2831322C3132FC
:1016400038293A50522220222C453B3A2831322C5C
:10165000313238293D493A505222453A223B3A2804
:1016600031322C313238293D492B353A2831342C4E
:10167000323534293D542B2730273B3A5052222013
:10168000543A222C242831342C323534292C223E51
:10169000223B3A494E490012154946493D27412708
:1016A0003B474F544F3230300079164946493C335E
:1016B000333B474F544F33303A4946493D27532730
:1016C0003B474F544F33303A4946493D274C273B1F
:1016D000474F544F34303A4946493D2757273B47F7
:1016E0004F544F35303A4946493D274D273B474FE8
:1016F000544F36303A4946493D2751273B474F54CE
:101700004F37303A4946493D2754273B474F544FBE
:1017100038303A4946493D2750273B474F544F39C7
:1017200030001A17505222434D443A20534C574D23
:10173000505451223A474F544F3230001E1E283128
:10174000342C323534293D31323A50522428313448
:101750002C323534293A493D3000491F4E3D28315D
:10176000342C492B3634293A49464E3D303B474FBD
:10177000544F33343A49464E3C393B4E3D393A4E4C
:101780003D4E2D392A322B3232343A28302C492A18
:1017900032293D4E3A28302C492A322B31293D4EF0
:1017A0002B31003422493D492B313A4946492336F1
:1017B000343B474F544F33313A43414C4C28302C43
:1017C00035293A5052242831342C323534293B3AC9
:1017D000474F544F3230000628493D37000E294A02
:1017E0003D303A5052222020223B001B2A4E3D49D8
:1017F0002B4A3A4E3D2831342C3234302B4E293A84
:101800004E3D4E2B51001E2B49464E3C36343B4735
:101810004F544F34343A4E3D4E2D36343A474F54A0
:101820004F343300362C4E3D2831342C4E293A4D5E
:101830003D4E2F3130302A3130303A4E3D4E2D4D15
:101840003A50524E3B3A2831322C313238293D2819
:1018500031322C313238292D3400562D2831342C98
:10186000323534293D4D2F3130302B2730273A5037
:1018700052242831342C323534293B3A2831322C49
:10188000313238293D2831322C313238292B323A45
:1018900049464A23323B50522221223B3A4A3D4A92
:1018A0002B313A49464A23333B474F544F34320099
:1018B000372E493D492D333A50523A4946493C3733
:1018C0003B50522220202D2D2D2B2D2D2D2B2D2D1B
:1018D0002D223A4946493C373B474F544F34313A21
:1018E000474F544F32300041324946452D313C3844
:1018F0003B474F544F35333A5052224449523A22D3
:101900003B3A494E493A4946393C493B474F544F87
:1019100032303A513D512B2831342C3234302B495E
:10192000293A453D452D38001E334946513C363451
:101930003B474F544F35323A513D512D36343A479B
:101940004F544F3531000934474F544F3130001553
:1019500035505222454E4552475921223A474F545D
:101960004F323000623C505222444952203A2022E9
:101970003B3A494E493A4946393C493B474F544F17
:1019800032303A493D2831342C3234302B49293A0F
:101990004946493D303B474F544F32303A5052222E
:1019A000574152503A20223B3A494E4A3A4946382A
:1019B0003C4A3B474F544F32303A2831342C532B5A
:1019C0003634293D3000303D49464A3D303B474F93
:1019D000544F36353A4946452D313C323B474F54FA
:1019E0004F36353A4A3D4A2D313A453D452D323A3A
:1019F000533D532B49001E3E4946533C36343B472A
:101A00004F544F36333A533D532D36343A474F54A3
:101A10004F363200673F4E3D2831342C532B36343D
:101A2000293A49464E3D303B474F544F36313A49AB
:101A3000464E3C31303B474F544F3234303A4946A2
:101A40004E3D31303B474F544F3234313A505222A1
:101A5000535441524241534520444F434B223A454F
:101A60003D3235303A543D343A2831342C51293DF9
:101A70002831342C51292D31303000174128313490
:101A80002C532B3634293D31323A474F544F3230A4
:101A90003000294650522253555245203F223B3AAE
:101AA000494E493A4946493D2759273B474F544FEC
:101AB0003234323A474F544F323000545049465432
:101AC0003D303B474F544F32303A505222444952F6
:101AD000203A20223B3A494E493A4946393C493B53
:101AE000474F544F32303A493D2831342C3234304C
:101AF0002B49293A4946493D303B474F544F3230F4
:101B00003A4A3D373A4E3D533A543D542D31001C2C
:101B10005149464A3D303B474F544F3230303A4AA4
:101B20003D4A2D313A4E3D4E2B49001E5249464EFC
:101B30003C36343B474F544F38333A4E3D4E2D36AA
:101B4000343A474F544F38320050534D3D283134CA
:101B50002C36342B4E293A49464D3D303B474F54A5
:101B60004F38313A49464D3D31303B474F544F3263
:101B700030303A49464D3D31313B474F544F323476
:101B8000333A49464D3D31323B454E443A493D4D4D
:101B90003A474F544F31323000615A49464F3D3039
:101BA0003B474F544F32303A5052224C564C203A19
:101BB00020223B3A494E493A4946493D303B474F3E
:101BC000544F32303A4946452D313C493B474F54FA
:101BD0004F32303A453D452D493A4E3D492F4F2B26
:101BE000333A4E3D4E2D442B353A49463230303C47
:101BF0004E3B4E3D303A493D3100465B4946283127
:101C0000342C3135302B49293D3235353B474F5443
:101C10004F39343A4A3D2831342C3136302B49295A
:101C20002D4E3A2831342C3136302B49293D4A3A51
:101C300049463230303C4A3B474F544F31323000F6
:101C40001D5E493D492B313A49464923353B474FB3
:101C5000544F39313A474F544F3230300055785055
:101C600052224B4C494E474F4E20444F574E202155
:101C7000223A4A3D2831342C492B313530293A4912
:101C8000464A3D3235353B454E443A4E3D28313487
:101C90002C4A2B3634293A49464E23493B454E447B
:101CA0003A4B3D4B2D313A50524B2C224C45465429
:101CB000220049794F3D4F2D313A2831342C4A2B9F
:101CC0003634293D303A2831342C492B31353029EE
:101CD0003D3235353A2831342C51293D2831342CC8
:101CE00051292D313A49464B3D303B474F544F32F5
:101CF00034353A474F544F3230300027C849464FA9
:101D00003D303B474F544F32303A493D303A5052C4
:101D1000224B4C494E474F4E532041545441434B64
:101D2000220036C9493D492B313A4946493D353BA8
:101D3000474F544F32303A49462831342C492B31E1
:101D40003530293D3235353B474F544F3230313AEB
:101D5000474F544F323230004CD24E3D212F333258
:101D60002B313A49464E3D363B4E3D393A4E3D28A1
:101D700031342C4E2B323430293A4A3D2831342C20
:101D8000492B313530292B4E3A49462831342C28FD
:101D900031342C492B313530292B36342923493B1A
:101DA000454E440020D349464A3C36343B474F54C5
:101DB0004F3231323A4A3D4A2D36343A474F544F2A
:101DC000323131004ED449462831342C4A2B363436
:101DD0002923303B474F544F3230313A2831342C8D
:101DE0002831342C492B313530292B3634293D30DC
:101DF0003A2831342C492B313530293D4A3A2831A3
:101E0000342C4A2B3634293D493A474F544F32300F
:101E1000310040DC4E3D2831342C492B31363029FD
:101E20003A4E3D4E2B442D353A4D3D212F36342B25
:101E3000313A4E3D4E2A4D2F343A49464E3D303BC5
:101E4000474F544F3230313A4946453C4E3B4E3D68
:101E5000450023DD453D452D4E3A50524E2C22443F
:101E6000414D414745223A4946453D303B474F5455
:101E70004F323434003ADE4D3D2831342C492B3179
:101E80003630293A4E3D4E2F333A49464D2D313C9E
:101E90004E3B4E3D4D2D313A2831342C492B3136B5
:101EA00030293D4D2D4E3A474F544F323031002CA2
:101EB000F0505222594F55204841564520434F4C2F
:101EC0004C4944454420574954482041204B4C49F3
:101ED0004E474F4E2E223A454E440028F150522292
:101EE000594F552048415645204255524E454420B1
:101EF000555020494E204120535441522E223A45FC
:101F00004E44002CF2505222594F5520484156451C
:101F10002052455349474E45442046524F4D205389
:101F2000544152464C4545542E223A454E44003BBE
:101F3000F3505222594F55204841564520444553AD
:101F400054524F5945442041205354415242415329
:101F50004520414E44204245454E20415252455372
:101F60005445442E223A454E440027F45052224113
:101F7000204B4C494E474F4E205348495020444532
:101F80005354524F59454420594F55223A454E44D7
:101F9000001FF5505222434F4E4752415453202DBB
:101FA00020594F5520574F4E2021223A454E44008C
:101FB000FF68C40F36C4FF32C475CA00E20098043B
:101FC000C2C090F4C40037C40233C49035C44F314A
:101FD000C4003FC41037C40433C3FCE4FD9C1AC3DF
:101FE000FDE4B59C14C3FEE4AE9C0EC3FFE4769CF6
:101FF00008C49637C4BA33033FC49137C448333F4B
:102000000C2A2A204D494E4F4C202A2A0D56302E9C
:1020100039342050535220323031360D0037CEFF44
:1020200033CEFFC4FFCEFFCEFDC464CA01C4FFCAD5
:1020300000AA004003FA010106D4809CF44002F299
:102040000101C201E40A9806C601C40A90DD40CA33
:1020500001C40037C40233C6FF9C08C601C2009CFD
:1020600002C601C601D4809C07C2FFDC303F90F35A
:10207000C60133C601373F90FEC400CEFF01C50143
:10208000E42098FAC5FF02F4C69417F48A94130268
:10209000407070707001C501D40F02707001AA0009
:1020A00090DCC60102F4FF063F9007C40137C46705
:1020B000333F9044C41035C40431C400CEFFC50181
:1020C000D4809C2EC50101C49037C46B333FC4003B
:1020D00037C40233C4203FC50198033F90F9C40DB3
:1020E0003FAA00D4039CD7C40037C404333FE42084
:1020F00098CCC601C4FF0102901EC41037C404333B
:10210000C4FFCB00C4FDCBFCC4B5CBFDC4AECBFE3D
:10211000C476CBFF02C4FF019030C49537C47E3330
:1021200003C1009825E43A9821C501E42C98EBE41A
:102130000C98E7E4089822E40C9859C1FF02F4A532
:102140009404F41A9406C4350102906C02F490CA07
:10215000FEC40CF400CAFF9005C5FF3F945AC6FEAA
:1021600035CEFF31CEFFC40037C40633C40C35C4AE
:10217000B031C4483FC49037C4C7333FD4809C03B8
:10218000C10001C60131C60135C60133C601374061
:10219000CB0090863F9421C2FF35CAFFC2FE31CEEC
:1021A000FEC40037C40633C4483FC5019CFCB9FFD8
:1021B000C60131C6013590DA9013C40C37C4903390
:1021C000C41ACAFFC400CF01BAFF9CF8039051C4DF
:1021D0000837C300E4839844C40037C40233C10005
:1021E000987FE43A987BC501E42098E3E40C98DFFB
:1021F000E4179870E419982AE4069833C4203FC580
:10220000FFC49437C42B333F945BC49037C46B3303
:102210003FC40037C40233C4203F90B3C438010226
:102220009043C5019835E42298A5C1FF3F90F3C4BF
:102230009537C47E333F942DC6FF35CA00C6FF31A3
:10224000CA00C40037C40233C50198029408C6010D
:1022500031C6013590C4C1FF3F90EDC435010290F5
:1022600004C40D3F039027C49537C47E333F941EAA
:10227000C2FE01C2FF374033C7FF35CEFF31CEFF6C
:10228000C40C35C49031033FC60131C601359051AD
:10229000C100E4289820C10002F4A59404F41A9423
:1022A00006C4350102903A02F490CEFEC40CF4004C
:1022B000CA01C501900BC49537C47E333F9422C632
:1022C000FEC501E42098FAE41D9CD6C49437C42BC3
:1022D000333FC60206940AC2FE33C2FF3740CB002A
:1022E00003904D3F944AC100E43D980EE41E980AC5
:1022F000E41F9806C43501029036C501CEFF40CEDA
:10230000FF3FC602069429C2FFE43C9C09C2FE03BB
:102310007806D480900DC2FE609802C40201C2FF0C
:10232000D40260039C0AC100E43B9CC8C5019059DB
:1023300090293F942640CAFFC41035C40431C1001F
:102340009406C4310102901301C101E2FF980AC54D
:102350008090EBC41035C40431900D069412C50171
:102360009806E43A9CF89021C100941103C4FF013F
:10237000C49637C4BA333FC435010290F3C40C3756
:10238000C48D33C101CB00C502C50198DBE42098A0
:10239000F8E41A98F4E41898C5C1FF01C49537C44D
:1023A000C933C705982C609CF9C3FCE1009CF3C3BA
:1023B000FDCAFFC50198C0E43A98BCBAFF9CF4C5B9
:1023C00001E42098FAC5FFC3FE01C3FF3740333F45
:1023D000900BC5FFC49237C4DE333F900037CEFF69
:1023E00033CEFFC42BCEFFC400CEFFC40C37C49045
:1023F00033C100984FC501E42098F6E4089855E4ED
:10240000099C1B02C3FF1FCBFF01C3FE1FCBFE6055
:102410000106D4809C06C3FFE4B4CBFF9064E406BD
:102420009C0FC100981E01C101E4279C17C50290B2
:1024300051C1FF02F4A5940CF41A9442F4079404D9
:10244000F40A941DC4340102C602C60133C6013722
:10245000063F9089C5FFC49537C47E333F94E99009
:102460002101C10002F4C69419F48A941502407047
:1024700070707001C501D40F0270700190E401C347
:102480008001C201E42B9C0602C200709008E406A1
:102490009C1203C20078CA009030C43790A8C200D2
:1024A000010390A4E4079C45C200CA01C400CA000D
:1024B000409817D4019807C20002F201CA00401CDC
:1024C00001C20102F201CA0190E6C501E42098FAB6
:1024D000C5FFE42B980CE4069808E4079804E4058B
:1024E0009CBCC501CA01C49437C439333F4098AA83
:1024F000C200CA01C400CA00CAFFC480CAFEC2FE2C
:1025000098C802C2FFF2FFCAFFC2019402AAFFC22A
:10251000FF0378CAFD06940AC2FDCAFFC2FEDA00B4
:10252000CA00C2FE1CCAFEC20102F201CA0190CE5C
:10253000C6FE37CEFF33CEFFC100E4289C2EC50176
:10254000C49437C42B333F942740CA03C100E42C02
:102550009C1AC5013F941940CA0233C100E4299C6A
:102560000BC501C20337C30001039004C434010248
:10257000C60133C60137C602063F4C4502DE92490A
:1025800046013193474F038093434103B592505224
:10259000011D92434C040892494E016891454E0238
:1025A00062914E45024891525502A1934C49030253
:1025B000914F5301F9900037CEFF33CEFF40CEFF4D
:1025C000C41037C40433C300D4809C15C30001C3B6
:1025D00001E2009804C78090EDC380CF01E4FF9C26
:1025E000F8C60101C60133C601373F37CEFF33CEEF
:1025F000FF40CEFF35CEFF3531CEFF31C400CEFFD8
:10260000AA00C5019CFAC41037C40433C300D480A7
:102610009C11C30001C20303FB0198FE069404C78A
:102620008090E9C400CAFFCAFEAAFE9C02AAFFC7A6
:1026300001E4FF9CF4C20001C300CB80C7FFC2FECF
:102640009C06BAFFD4809C04BAFE90ECC701C2017C
:1026500031C20235C501CF019CFAC601C60131C69F
:102660000135C60101C60133C601373FC40037C476
:10267000023306D4809824C49635C4D131C4003FB7
:1026800090534F4B0D0021455252200020415420C1
:1026900000425245414B0041542000C49635C4D5F8
:1026A0003140E4FF98D140E4389C09C49635C4E039
:1026B00031C42001C4003F403FC4003FC40C37C4B4
:1026C0008D33C30001C49037C46B333FC40037C49B
:1026D0000233C40D3FC40037C40633C40C35C4B044
:1026E00031C400C9DDC4483FC49037C4C7333FD4A8
:1026F000809C19C10098DEC5019CFCC4FFC900C4C0
:102700000C35C4B031C49337C4D7333FC49637C4F3
:1027100005333FC10098BEC400C9FFC402CAFFAA66
:10272000FFC5019CFAC5FFC5FF9CFC40C900C2FF64
:10273000CDFF3F90A0FFFFFFFFFFFFFFFFFFFFFF69
:10274000FFFFFFFFFFFFFFFFFFFFFFFFFFFFFFFF99
:10275000FFFFFFFFFFFFFFFFFFFFFFFFFFFFFFFF89
:10276000FFFFFFFFFFFFFFFFFFFFFFFFFFFFFFFF79
:10277000FFFFFFFFFFFFFFFFFFFFFFFFFFFFFFFF69
:102FB000FF089006902F9009902DC40137C45D330F
:102FC0003FC40835CEFFC10094FCD47FCAFFC100C6
:102FD000D4809CFAC60135C2FE02F4209402FC2083
:102FE000F4E03F90DC9068CEFF37CEFF33CEFF4059
:102FF000CEFFC40001C40037C49D33C49B3FC4004E
:1030000037C40F333FC980C40037C49D33C4083F61
:10301000C180D4E0980F40E20398DAC1803FC40138
:1030200002700190D0C180E4089817E4059CC6C9DD
:1030300080C40D3FC60101C60133C60137C6013F3A
:1030400090A54098B0C4083FC4FF02700190A6CE7E
:10305000FF35CEFF31CEFF40CEFFC2039C12C2012E
:1030600031C20235C5010135CA0231CA0140984654
:1030700001C40C35C48031C1003140D4E0984540D2
:1030800003FC6006E480940440D43F0140C900354D
:10309000C40035CD01C40C35C48031C9009413C4BB
:1030A0000C35C41031C100C9F0C5013194F6C470AB
:1030B000903DC20398A8C60101C60131C60135C6BC
:1030C000013F908B40E40D981BE4019820E4049CA0
:1030D000E13198DE31C5FFC420C900C40035C420E9
:1030E000C90090B131D4F002F4103190A8C400CEE0
:1030F000FF31C420CD013194F8C40031C40C35C176
:103100000035C40035CD013194F1C601319086C43B
:103110009035C100E4689C013DC40F36C4FF32C63F
:1031200040C4A5CEC0E2009CF8C40035C40031C440
:1031300020CD013194F8C40C35C41831C400C90045
:10314000C103E4A7984BC4A7C903C40CC902C42E89
:10315000C901C40537C43333C40135C4B431C50112
:1031600098223F90F92A2A2053432F4D50204F5345
:10317000202A2A0D56302E39342050535220323016
:1031800031360D00C401078FFFC405078FFFC4004F
:1031900007C40537C4A033C4003FC40537C4333364
:1031A000C45D3FC40001C40835C100940290FAC157
:1031B0000094FCD47FCAFFC40C35C41E31C2FFE4A6
:1031C00008981EE405982840E41098DAC2FF02F43B
:1031D000209402FC20F4E0C9803F0102F401019038
:1031E000C54098C203FC0101C4083F90B990A2C930
:1031F00080C40D3FC4000140CAFFC9FFC10002F4F2
:103200003F941AC405CAFE40027001C2FFF2FFCA11
:10321000FFBAFE9CF2C501D41F580190DFC41C31D7
:10322000C900C44731C40735C100D9019831C5036D
:10323000609CF5C1FEE2FF9CEFC4D333C40537C1E7
:10324000FFD4F0E4209C22C1FF02F1FFD41FF4EE72
:1032500031C40735C10001C101354031C5FF3DC44E
:1032600003078FFFC400079084C1FFCEFF3F069481
:1032700027C41C31CEFFC40C35C10031C100E4218C
:103280009C1EC20003FC1894D6C20001C40C35C4B5
:103290000031C180CA009008C200D4809CC1CEFF1A
:1032A000C40C37C41933C30402F201CA01C300318C
:1032B000C30135C201CD01941FC200CD01C3049CDE
:1032C00017C201E48F9811C1FF02FB00C9FFC201C0
:1032D000D4F0E4909C02B9FF31CB0035CB01C6029B
:1032E000900C3F3F9008C402078FFFC40007C4DF63
:1032F00033C401373F3F0694ED31333537C7FF3FC5
:1033000090EC3F0694E031CAFF35CAFE023F3FC44D
:10331000000119C420CAFD8FFFBAFD9CFAC4000148
:10332000198F10C4010119C4008F04C50101C4081C
:10333000CAFD19C4008F04BAFD9CF7BAFF9CDEBA1F
:10334000FE94DAC4010119C4008F04C4000119906D
:10335000AF90933F3F3FC40837C300D4809CF2191D
:103360004094F68F06C408CAFF19C4008F04BAFF40
:103370009CF740CD01194094E090D43F0694D2319F
:10338000014003FC1894CAC40C35C41931C1003182
:10339000C400027031C90090E03F3FC407CEFFC4B3
:1033A0000537C4A033C4043FC40C35C41931C1006F
:1033B00002F404C900C101F400C901BA009CE0C6CE
:1033C0000190B6C4D333C405373F0694ACC40C3562
:1033D000C4193101C10033C1013740CB00A9009CA1
:1033E000E2A90190DE3F3FC407CEFCC40537C4A06C
:1033F00033C4003FC40C35C41931C10033C1013797
:10340000C701CA019404C701CA02C4E933C900C490
:103410000737C901C201E302D4F09C0BC20103FBD0
:1034200002CA03D4E09808C7FD90E990BE9092C309
:1034300002D487E4849C04C2039CECC300CEFFC387
:1034400001CEFFC40537C43333C4203FC403CEFFCD
:10345000C2011C1CD41F980402F4403FC405CAFFDB
:1034600002C202F202CA02C201F201CA01BAFF9C00
:10347000EFBA009CDBC603C2039C1FC201940AC4BE
:103480000537C40033C202033FC40537C43333C415
:103490000D3FBA009C95C6049093C4203FC203D44C
:1034A000049803C4403FC4503FC203D403DC303F00
:1034B00090C9CEFFC40537CEFFC43333CEFF069488
:1034C00003C4203FC2021C1C1C1C02EC90EC403FB9
:1034D000C202D40F02EC90EC403FC60133C6013764
:1034E000C6013F90CDCEFFC40C35CEFFC41831CEFF
:1034F000FFC40037CEFF33CEFFC10033C420CB0062
:10350000C204E40D9840E4059830C204D43FCF01D2
:10351000A900D40F9C0CC410CAFFC420CF01BAFF6D
:103520009CF8C10033C49BCB00C60133C60137C62B
:103530000131C60135C6013F90AB3398E5B9003380
:10354000C420CB0090DCC100D47002F410C9003359
:1035500090C4CEFFC40537CEFFC40033CEFFC40CE9
:1035600035C41931C101023FC100023F01C101351B
:103570004031BA029409C60133C602373F90D3C521
:1035800001033F90EDC40C35C41C31C400CAFFCA0E
:10359000FEC10031C100987BC501E42098F6E460CB
:1035A000985EE410984CC1FF02F4509466FC0994B4
:1035B0000AFC07945EF479945AF47602F40AD40F64
:1035C00001C404CAFD02C2FFF2FFCAFFC2FEF2FE3E
:1035D000CAFEBAFD9CEFC2FF58CAFFC50103FC2218
:1035E00094C4C5FFC41C31C900C2FF31C2FE3503FB
:1035F0009022C100D4FCE4309C19C501D403900290
:10360000C404CAFDC41D3101C10002F2FDC900405D
:10361000319081023F06940CC4193101C40C35C9A4
:103620000140C9003FC40C35C41931C10001C101BA
:103630003540313FFFFFFFFFFFFFFFFFFFFFFFFFB1
:10364000FFFFFFFFFFFFFFFFFFFFFFFFFFFFFFFF8A
:10365000FFFFFFFFFFFFFFFFFFFFFFFFFFFFFFFF7A
:10366000FFFFFFFFFFFFFFFFFFFFFFFFFFFFFFFF6A
:10367000FFFFFFFFFFFFFFFFFFFFFFFFFFFFFFFF5A
:10368000FFFFFFFFFFFFFFFFFFFFFFFFFFFFFFFF4A
:10369000FFFFFFFFFFFFFFFFFFFFFFFFFFFFFFFF3A
:1036A000FFFFFFFFFFFFFFFFFFFFFFFFFFFFFFFF2A
:1036B000FFFFFFFFFFFFFFFFFFFFFFFFFFFFFFFF1A
:1036C000FFFFFFFFFFFFFFFFFFFFFFFFFFFFFFFF0A
:1036D000FFFFFFFFFFFFFFFFFFFFFFFFFFFFFFFFFA
:1036E000FFFFFFFFFFFFFFFFFFFFFFFFFFFFFFFFEA
:1036F000FFFFFFFFFFFFFFFF9421002560016C0C1F
:10370000026C4C032E1104AE2405610E06330C0727
:10371000F039082F4D1972021C4C4E1D52021E4CDE
:103720004A1F0D0020010021070022B44223B41CCF
:10373000240300250200260C00270400280C623018
:1037400008623403623C853040C50550453E58450B
:103750006260251068850470250C7899118FB02956
:10376000905001945A0198DA299C8425A88411B8B4
:103770008401C08930C47402C8C405D0C905D4F21C
:1037800001D8493EDCF261E04962E42410E82910E6
:10379000EC8404F08904F4240CF8290CFC0000E803
:1037A00003310344035103A20378011204CA033412
:1037B000040200000A0B02090C0D0E0807030401A5
:1037C00000000000000000000000000000000000F9
:1037D00000000000000000000000000000001211C6
:1037E00010000000000000000000000000000000C9
:1037F0000000000000000000010210202008081056
:103800002040102040800201020108040201010250
:103810000408102040808040201008040201800429
:103820000201804020100804020108040201010284
:103830000408102040800102040810204080050583
:103840000505070508080808020202020A0A080816
:103850000404040401010101010101010303030344
:1038600003030303040707070C0C0C0C0C0C0C0CD3
:103870000202020206060606060606060B0B0B0BE4
:103880000B0B0B0B000020002300260029002C004E
:103890002F003200000100000301060109010000B1
:1038A0002200250028002B002E00310034000201E8
:1038B0000000050108010B01000021002400270081
:1038C0002A002D003000330001010000040107012F
:1038D0000A010000000000000000000000000009D4
:1038E0006000000000000071310000007A73617711
:1038F00032000063786465343300002076667472A9
:103900003500006E62686779360000006D6A7537B1
:103910003800002C6B696F303900002E2F6C3B7023
:103920002D00000027005B3D000000000D5D005CE5
:1039300000000000000000007F000031003437006C
:103940000000302E323536381B00002B332D2A393B
:103950000000000000000000000000000000000067
:1039600000000000000000097E000000000000517F
:10397000210000005A534157400000435844452459
:1039800023000020564654522500004E4248475915
:103990005E0000004D4A55262A00003C4B494F2945
:1039A0002800003E3F4C3A505F00000022007B2B75
:1039B000000000000D7D007C000000000000000001
:1039C0007F000031003437000000302E32353638A9
:1039D0001B00002B332D2A390000000000000000DE
:1039E00000000000000000000000000000000000D7
:1039F00000000000000000000000000000000000C7
:103A000000000000000000000000000000000000B6
:103A100000000000000000000000000000000000A6
:103A20000000000000000000000000000000000096
:103A30000000000000000000000000000000000086
:103A40000000000000000000000000000000000076
:103A50000000000000000000000000000000000066
:103A6000000000000000000000000000D81F11242A
:103A70001FBECFEFD1E2DEBFCDBF00E00CBF12E032
:103A8000A0E0B2E0E6E1FAE700E00BBF02C0079079
:103A90000D92AE36B107D9F727E1AEE6B2E001C02C
:103AA0001D92AD38B207E1F71AE3CEE6DAE300E0A3
:103AB00006C022970109FE010BBF0E94993CCC363B
:103AC000D10780E00807A9F70E9446370C94093D0A
:103AD0000C940000FC012283638344830895CF93F8
:103AE000DF93FC01438150E0FA01E25CF74CE49182
:103AF000F0E0EE0FFF1FE256F74CA591B491FC01E8
:103B0000248130E0F901E25CF74C849190E0880F69
:103B1000991F8256974CFC01C591D491FA01E85047
:103B2000F84C4491F901E850F84C24913FB7F894CF
:103B300088E0722F7095542F5095988167FF02C0CE
:103B4000922B01C0972398839C91942B9C939C91DA
:103B500095239C93660F815081F73FBFDF91CF91F2
:103B600008951F93CF93DF93EC01142F8A8188234C
:103B700089F06EBD0DB407FEFDCF812F807F8EBD15
:103B80000DB407FEFDCF1295107F1EBD0DB407FECC
:103B9000FDCF0EC0CE01A3DF612F607FCE019FDF7E
:103BA000612F6295607FCE01DF91CF911F9197CFFA
:103BB000DF91CF911F910895462F68EFD2CFCF9319
:103BC000DF93EC0160E08B810E94EA3860E08C8139
:103BD0000E94EA3861E08B810E94B13861E08C81FB
:103BE0000E94B1388A81882311F081E58CBD18824A
:103BF00060E2CE01E1DF61E070E080E090E00E94F1
:103C0000CC3760E2CE01D8DF80E390E00E94F1374C
:103C100066E0CE01D1DF80E390E00E94F1371982A7
:103C200081E088836CE0CE01C7DF80E390E0DF9124
:103C3000CF910C94F137462F6AEF93CFCF93DF9358
:103C4000EC01898181110EC08881882311F066E220
:103C500001C064E2CE01B0DF80E390E00E94F13762
:103C600081E08983DF91CF910895EF92FF920F93C6
:103C70001F93CF93DF931F92CDB7DEB77C018B01EB
:103C8000FC018081882301F1C7014983D7DF602FC0
:103C90006F716068C70190DF4981642F6068C80157
:103CA000807299279695879596958795682BC70179
:103CB00083DF80E390E00F90DF91CF911F910F9110
:103CC000FF90EF900C94F1370F90DF91CF911F91FF
:103CD0000F91FF90EF9008950F931F93CF93DF9371
:103CE0001F921F92CDB7DEB78C01842F462F50E074
:103CF000682F70E0C8012A833983B7DF3981632FC9
:103D0000C80199DF2A81622FC80195DF8AE090E01F
:103D10000F900F90DF91CF911F910F910C94F1377D
:103D2000FF920F931F93CF93DF938C01C0E0D0E0FD
:103D300040E050E0BE01C80198DFF8E0FF2E60E0EF
:103D4000C80179DF60E0C80176DF8AE090E00E9478
:103D5000F137FA94A1F72196C034D10549F7DF91E4
:103D6000CF911F910F91FF900895AF92BF92CF9284
:103D7000DF92EF92FF920F931F93CF93DF936C012B
:103D8000B62EA42E7901C0E0D0E0F70180819E011B
:103D900048E0849F200D311D1124C901880F991F0F
:103DA0008A5E9C4FAA2797FDA095BA2FABBFFC0156
:103DB00087919691F70121818E01F8E02F9F000DE8
:103DC000111D1124000F111F0A5E1C4F222717FD21
:103DD0002095322F2BBFF80107911691382F2227FB
:103DE000202B4C2F4A0D6B2DC60176DF2196C83053
:103DF000D10509F0CACFDF91CF911F910F91FF90AC
:103E0000EF90DF90CF90BF90AF900895CF93DF9366
:103E100061E086E30E94B13861E086E30E94EA38FF
:103E200061E08FE692E0CBDE8FE692E079DF42ED53
:103E300058E363E082E00E94583AE5E7F2E08FEF52
:103E4000819392E0ED37F907D9F781E08093FF0283
:103E5000CDE7D2E082E0CD3FD80721F00E94F53CCB
:103E60008993F8CFDF91CF910895AF92BF92DF92FF
:103E7000EF92FF920F931F93CF93DF931F92CDB7D3
:103E8000DEB78091FF02811105C00E94213A88238C
:103E9000D1F129C01092FF0285E7A82E82E0B82E4A
:103EA0000DE712E050E0F5018081882399F0780158
:103EB000D12C9701452F6D2D8FE692E0598355DF68
:103EC000D394F2E0EF0EF11C598188E0D812F1CFC3
:103ED000F5011082FFEFAF1ABF0A005F1F4F585F56
:103EE000503409F7D2CF0E94343A87FD03C0809343
:103EF000FE0202C01092FE028091FE028F3719F47A
:103F000088E08093FE028091FE028093FD02109271
:103F1000FE020F90DF91CF911F910F91FF90EF90D4
:103F2000DF90BF90AF9008958091FD021092FD0246
:103F30008111806808958F7790E0FC01E358FD4F70
:103F400020812617D1F06083FC0124E0F595E795E8
:103F50002A95E1F7EB58FD4F95958795877099273E
:103F600020E830E002C0359527958A95E2F78081F8
:103F7000822B808381E08093FF0260937402089516
:103F800080E0089580E00895E82FF0E0EE0FFF1F35
:103F9000EB5EFD4F608171816115710519F48CE054
:103FA0000C94D33620E030E0A9018CE00C94B233BD
:103FB00020E047E368E38FE692E08CDD8EE692E056
:103FC0000C94573A24C1CF92DF92EF92FF92CF9395
:103FD000DF9300D01F92CDB7DEB754D1282F30E049
:103FE00040E050E0211531054105510549F1298393
:103FF0003A834B835C830E949D37C0900003D0902E
:104000000103E0900203F090030329813A814B8180
:104010005C816C157D058E059F0548F368EE73E0A5
:1040200080E090E00E944B3C2C0D3D1D4E1D5F1D1D
:104030002093000330930103409302035093030342
:104040000F900F900F900F90DF91CF91FF90EF9016
:10405000DF90CF90089540911E0350910D03242FBF
:1040600030E0C901850F911D60910F03860F911DEE
:104070009093070380930603692F617060930F0389
:10408000452747FF03C010920E0307C02827392792
:1040900027FFF9CF21E020930E0380931E0308959C
:1040A00090911E0380910D03292F2F70382F3F70A0
:1040B000230F30910F03230F20930A03392F307FF2
:1040C000807F90E0830F911D9093070380930603F8
:1040D00010920F032A3040F02A5020930A03409692
:1040E0009093070380930603809106039091070342
:1040F0008139910548F0805A910990930703809384
:10410000060381E080930F038091060390910A03D8
:10411000892B80931E0308958091080390910903D1
:104120009C013C50211544E1340738F4F901E15E6B
:10413000FC4F80910D0380830895811528E092073C
:1041400018F460910D03F7CE089520910803309183
:104150000903C901211548E0340718F48F54904D24
:1041600007C09059811540E1940750F48F54904E48
:10417000AA2797FDA095BA2FABBFFC01879118C065
:10418000C9019C50811544E1940728F4FC01E15ECB
:10419000FC4F80810DC0C90198508115944038F4BE
:1041A0002A3A3A4011F4ECDE03C0BEDE01C08FEFC4
:1041B00080930D03089580911C038F7080931C03DE
:1041C00080E0E0DE811105C080911C038061809356
:1041D0001C0381E0D7DE811105C080911C03806241
:1041E00080931C0380910E03882329F080911C0387
:1041F000806480931C0380910F03882329F08091B1
:104200001C03806880931C0380911C030895CF9346
:10421000DF9310921C0310921D0310921E03109244
:1042200015031092140310921703109216031092A4
:1042300019031092180310921B0310921A03109284
:104240000E0310920F031092130310921203109298
:10425000110310921003DADD26E133E1CFE1D7E05C
:10426000C901AA2797FDA095BA2FABBFFC01879182
:1042700089932F5F3F4F8FE1213B380789F7DF910B
:10428000CF9108950F931F93CF93DF9380911003E5
:10429000909111030097E9F0893823E1920748F0E3
:1042A000885893419093110380931003DEDD0C94A2
:1042B000AC33880F991F2091120330911303280FFC
:1042C000391F30931303209312031092110310929D
:1042D000100380911A0390911B03019690931B0386
:1042E00080931A0390930903809308032EDF809133
:1042F0000D0380930C0387FF17C080911A039091E0
:104300001B03019690931B0380931A03809108036B
:10431000909109030196909309038093080315DF98
:1043200080910D0380930B0380910C0390E0FC01BE
:10433000EE58FF4F0C94893C809112039091130327
:10434000089690931303809312030C9492338091F8
:104350001E0380930A0390911D0390931E03809384
:104360001D038091120390911303079690931303FA
:10437000809312030C94923310920F0380911203D6
:1043800090911303059690931303809312030C945A
:10439000923381E080930F03809112039091130375
:1043A000059690931303809312030C94923380919B
:1043B0001C03877F80931C03809112039091130349
:1043C000069690931303809312030C94923380917A
:1043D0001C03886080931C03809112039091130347
:1043E000069690931303809312030C949233E3DEAA
:1043F00080931E038091120390911303059690936E
:104400001303809312030C94923380911E038093C4
:104410001C03982F991F9927991F90930F0386FBD0
:10442000992790F990930E038770AEDD8091120367
:1044300090911303069690931303809312030C94A8
:104440009233809112039091130306969093130375
:10445000809312030C94923380911D0390E0959504
:10446000879580931D038091120390911303059605
:1044700090931303809312030C94923380911E0344
:1044800090E09595879580931E03809112039091FB
:104490001303059690931303809312030C949233A5
:1044A00080910F0340E8849FC001112490911E0366
:1044B0009695982B90931E0380911203909113036D
:1044C000059690931303809312030C94923380917A
:1044D0001E0380FB879587F980931E03809112034A
:1044E00090911303059690931303809312030C94F9
:1044F000923330911E03232F217020930A03809161
:104500000F0340E8849FC0011124932F9695982BA8
:1045100090931E0320930F03809112039091130335
:10452000059690931303809312030C949233809119
:104530001A0390911B0380930A0340911E039C0170
:104540002227242B30931B0320931A0380931E03EE
:104550008091120390911303089690931303809314
:1045600012030C9492338091180390911903809355
:104570000A0340911E039C012227242B3093190328
:104580002093180380931E038091120390911303CC
:10459000089690931303809312030C9492338091A6
:1045A00016039091170380930A0340911E039C0108
:1045B0002227242B309317032093160380931E0386
:1045C00080911203909113030896909313038093A4
:1045D00012030C94923380911403909115038093ED
:1045E0000A0340911E039C012227242B30931503BC
:1045F0002093140380931E03809112039091130360
:10460000089690931303809312030C949233809135
:104610001A0320911B0320930A0330911E0390E09C
:10462000932B90931B0380931A0320931E03809176
:10463000120390911303089690931303809312032F
:104640000C949233809118032091190320930A034C
:1046500030911E0390E0932B9093190380931803DD
:1046600020931E0380911203909113030896909358
:104670001303809312030C949233809116032091BC
:10468000170320930A0330911E0390E0932B90931D
:1046900017038093160320931E03809112039091B9
:1046A0001303089690931303809312030C94923390
:1046B000809114032091150320930A0330911E0367
:1046C00090E0932B909315038093140320931E0383
:1046D0008091120390911303089690931303809393
:1046E00012030C94923380911A0390911B039093C0
:1046F000070380930603809112039091130307969A
:1047000090931303809312030C94923380911A03B5
:1047100090911B0390930703809306032091180345
:104720003091190330931B0320931A0390931903BC
:10473000809318038091120390911303079690932E
:104740001303809312030C94923380911A03909177
:104750001B03909307038093060320911603309167
:10476000170330931B0320931A039093170380932E
:1047700016038091120390911303079690931303ED
:10478000809312030C94923380911A0390911B032F
:10479000909307038093060320911403309115032F
:1047A00030931B0320931A039093150380931403F3
:1047B00080911203909113030796909313038093B3
:1047C00012030C94923380911D0380931E038091F9
:1047D0001203909113030696909313038093120390
:1047E0000C94923380911E0390911D03892780932E
:1047F0001E03809112039091130306969093130366
:10480000809312030C94923380911E0390911D03A8
:10481000892B80931E0380911203909113030696B7
:1048200090931303809312030C94923380911E0390
:1048300090911D03892780931E038091120390910C
:104840001303069690931303809312030C949233F0
:1048500080911D0380930D0323DC809112039091BE
:1048600013030B9690931303809312030C949233CB
:1048700080911D0380930D03EEDB809112039091D4
:104880001303079690931303809312030C949233AF
:1048900080911D03809580930D03DDDB80911203D1
:1048A00090911303089690931303809312030C9432
:1048B0009233C0910B03D0E0DC2FCC270091120380
:1048C0001091130360E177E280E090E0601B710BD0
:1048D0008109910922E030E040E050E00E946D3C07
:1048E000C217D30768F4CC0FDD1FC00FD11FD093C0
:1048F0001303C093120310921103109210030CC003
:10490000C21BD30BD0931103C093100380E197E235
:10491000909313038093120310921E03809112034D
:10492000909113030D9690931303809312030C94AC
:10493000923320910B03332727FD309530930503E5
:104940002093040380911A0390911B03820F931FFD
:1049500090931B0380931A03809112039091130389
:104960000B9690931303809312030C94923320912F
:104970000B03332727FD3095309305032093040361
:104980008091180390911903820F931F90931B033A
:1049900080931A0380911203909113030B969093C6
:1049A0001303809312030C94923320910B0333274B
:1049B00027FD30953093050320930403809116035F
:1049C00090911703820F931F90931B0380931A03F8
:1049D00080911203909113030B969093130380938D
:1049E00012030C94923320910B03332727FD30954B
:1049F00030930503209304038091140390911503D1
:104A0000820F931F90931B0380931A0380911203CC
:104A1000909113030B9690931303809312030C94BD
:104A2000923320910B03332727FD309530930503F4
:104A30002093040380911E0387FD0AC080911A030E
:104A400090911B03820F931F90931B0380931A0373
:104A500080911203909113030A969093130380930D
:104A600012030C94923320910B03332727FD3095CA
:104A7000309305032093040380911E0387FD0AC031
:104A80008091180390911903820F931F90931B0339
:104A900080931A0380911203909113030A969093C6
:104AA0001303809312030C94923320910B0333274A
:104AB00027FD3095309305032093040380911E0356
:104AC00087FD0AC08091160390911703820F931FF0
:104AD00090931B0380931A03809112039091130308
:104AE0000A9690931303809312030C9492332091AF
:104AF0000B03332727FD30953093050320930403E0
:104B000080911E0387FD0AC08091140390911503C4
:104B1000820F931F90931B0380931A0380911203BB
:104B2000909113030A9690931303809312030C94AD
:104B3000923320910B03332727FD309530930503E3
:104B40002093040380911E0381110AC080911A03EF
:104B500090911B03820F931F90931B0380931A0362
:104B600080911203909113030A96909313038093FC
:104B700012030C94923320910B03332727FD3095B9
:104B8000309305032093040380911E0381110AC012
:104B90008091180390911903820F931F90931B0328
:104BA00080931A0380911203909113030A969093B5
:104BB0001303809312030C94923320910B03332739
:104BC00027FD3095309305032093040380911E0345
:104BD00081110AC08091160390911703820F931FD1
:104BE00090931B0380931A038091120390911303F7
:104BF0000A9690931303809312030C94923320919E
:104C00000B03332727FD30953093050320930403CE
:104C100080911E0381110AC08091140390911503A5
:104C2000820F931F90931B0380931A0380911203AA
:104C3000909113030A9690931303809312030C949C
:104C4000923320910B03332727FD309530930503D2
:104C50002093040380911E03882351F080911A034E
:104C600090911B03820F931F90931B0380931A0351
:104C700080911203909113030A96909313038093EB
:104C800012030C94923320910B03332727FD3095A8
:104C9000309305032093040380911E03882351F071
:104CA0008091180390911903820F931F90931B0317
:104CB00080931A0380911203909113030A969093A4
:104CC0001303809312030C94923320910B03332728
:104CD00027FD3095309305032093040380911E0334
:104CE000882351F08091160390911703820F931F30
:104CF00090931B0380931A038091120390911303E6
:104D00000A9690931303809312030C94923320918C
:104D10000B03332727FD30953093050320930403BD
:104D200080911E03882351F0809114039091150304
:104D3000820F931F90931B0380931A038091120399
:104D4000909113030A9690931303809312030C948B
:104D5000923320910B03332727FD309530930503C1
:104D60002093040380911A0390911B03820F931FD9
:104D70009093090380930803E8D980910D038F5F16
:104D800080931E0380930D03C7D9809112039091E5
:104D90001303469690931303809312030C9492335B
:104DA00020910B03332727FD309530930503209383
:104DB00004038091180390911903820F931F90931D
:104DC000090380930803C1D980910D038F5F8093FD
:104DD0001E0380930D03A0D98091120390911303B9
:104DE000469690931303809312030C949233209170
:104DF0000B03332727FD30953093050320930403DD
:104E00008091160390911703820F931F90930903CB
:104E1000809308039AD980910D038F5F80931E03BE
:104E200080930D0379D980911203909113034696D4
:104E300090931303809312030C94923320910B03ED
:104E4000332727FD30953093050320930403809189
:104E5000140390911503820F931F9093090380937D
:104E6000080373D980910D038F5F80931E03809395
:104E70000D0352D98091120390911303469690939B
:104E80001303809312030C94923320910B03332766
:104E900027FD3095309305032093040380911A0376
:104EA00090911B03820F931F909309038093080333
:104EB0004CD980910D03815080931E0380930D0384
:104EC0002BD980911203909113034696909313036C
:104ED000809312030C94923320910B03332727FD08
:104EE000309530930503209304038091180390912B
:104EF0001903820F931F909309038093080325D908
:104F000080910D03815080931E0380930D0304D97B
:104F1000809112039091130346969093130380930C
:104F200012030C94923320910B03332727FD309505
:104F30003093050320930403809116039091170387
:104F4000820F931F9093090380930803FED88091EA
:104F50000D03815080931E0380930D03DDD8809153
:104F600012039091130346969093130380931203B8
:104F70000C94923320910B03332727FD3095309307
:104F80000503209304038091140390911503820F6D
:104F9000931F9093090380930803D7D880910D0342
:104FA000815080931E0380930D03B6D88091120325
:104FB00090911303469690931303809312030C94DD
:104FC000923320910B03203811F420911D033327D5
:104FD00027FD3095309305032093040380911A0335
:104FE00090911B03820F931F9093090380930803F2
:104FF000ACD880910D0380931E0380911203909191
:105000001303429690931303809312030C949233EC
:1050100020910B03203811F420911D03332727FD25
:1050200030953093050320930403809118039091E9
:105030001903820F931F909309038093080385D867
:1050400080910D0380931E038091120390911303AE
:10505000429690931303809312030C949233209101
:105060000B03203811F420911D03332727FD3095C1
:105070003093050320930403809116039091170346
:10508000820F931F90930903809308035ED8809149
:105090000D0380931E038091120390911303429697
:1050A00090931303809312030C94923320910B037B
:1050B000203811F420911D03332727FD30953093BC
:1050C0000503209304038091140390911503820F2C
:1050D000931F909309038093080337D880910D03A1
:1050E00080931E0380911203909113034296909334
:1050F0001303809312030C94923380910B038093DB
:105100001E0380911203909113030A969093130348
:10511000809312030C94923320910B03203811F4E6
:1051200020911D03332727FD3095309305032093ED
:10513000040327FF0AC08091180390911903820F7E
:10514000931F9093190380931803809118039091F3
:10515000190390930903809308030E94A52080916E
:105160000D0380931E03209104033091050327FD56
:105170000AC08091180390911903820F931F909396
:1051800019038093180380911203909113034296A0
:1051900090931303809312030C94923320910B038A
:1051A000203811F420911D03332727FD30953093CB
:1051B00005032093040327FF0AC0809116039091F2
:1051C0001703820F931F9093170380931603809108
:1051D00016039091170390930903809308030E948C
:1051E000A52080910D0380931E032091040330912C
:1051F000050327FD0AC08091160390911703820FC3
:10520000931F90931703809316038091120390913C
:105210001303429690931303809312030C949233DA
:1052200020910B03203811F420911D03332727FD13
:105230003095309305032093040327FF0AC0809123
:10524000140390911503820F931F9093150380937D
:105250001403809114039091150390930903809394
:1052600008030E94A52080910D0380931E032091C6
:1052700004033091050327FD0AC080911403909127
:105280001503820F931F909315038093140380914D
:105290001203909113034296909313038093120389
:1052A0000C94923320910B03203811F420911D03AC
:1052B000332727FD30953093050320930403809115
:1052C0001A0390911B03820F931F909309038093FD
:1052D000080380911E0380930D030E948C2080910F
:1052E0001203909113034296909313038093120339
:1052F0000C94923320910B03203811F420911D035C
:10530000332727FD309530930503209304038091C4
:10531000180390911903820F931F909309038093B0
:10532000080380911E0380930D030E948C208091BE
:1053300012039091130342969093130380931203E8
:105340000C94923320910B03203811F420911D030B
:10535000332727FD30953093050320930403809174
:10536000160390911703820F931F90930903809364
:10537000080380911E0380930D030E948C2080916E
:105380001203909113034296909313038093120398
:105390000C94923320910B03203811F420911D03BB
:1053A000332727FD30953093050320930403809124
:1053B000140390911503820F931F90930903809318
:1053C000080380911E0380930D030E948C2080911E
:1053D0001203909113034296909313038093120348
:1053E0000C94923320910B03203811F420911D036B
:1053F000332727FD3095309305032093040327FFBF
:105400000AC08091180390911903820F931F909303
:1054100019038093180380911803909119039093B6
:1054200009038093080380911E0380930D030E945B
:105430008C20209104033091050327FD0AC0809140
:10544000180390911903820F931F9093190380936F
:1054500018038091120390911303429690931303C3
:10546000809312030C94923320910B03203811F493
:1054700020911D03332727FD30953093050320939A
:10548000040327FF0AC08091160390911703820F2F
:10549000931F9093170380931603809116039091A6
:1054A0001703909309038093080380911E03809350
:1054B0000D030E948C20209104033091050327FDE9
:1054C0000AC08091160390911703820F931F909347
:1054D0001703809316038091120390911303429651
:1054E00090931303809312030C94923320910B0337
:1054F000203811F420911D03332727FD3095309378
:1055000005032093040327FF0AC0809114039091A0
:105510001503820F931F90931503809314038091BA
:1055200014039091150390930903809308038091CD
:105530001E0380930D030E948C2020910403309160
:10554000050327FD0AC08091140390911503820F73
:10555000931F9093150380931403809112039091ED
:105560001303429690931303809312030C94923387
:1055700020910B03203811F420911D03332727FDC0
:105580003095309305032093040380911A03909182
:105590001B03820F931F90930903809308030E94BB
:1055A000A52080911E0390910D03892380931E03F3
:1055B000809112039091130342969093130380936A
:1055C00012030C94923320910B03203811F4209194
:1055D0001D03332727FD30953093050320930403E3
:1055E0008091180390911903820F931F90930903E0
:1055F000809308030E94A52080911E0390910D03C3
:10560000892380931E038091120390911303429685
:1056100090931303809312030C94923320910B0305
:10562000203811F420911D03332727FD3095309346
:105630000503209304038091160390911703820FB2
:10564000931F90930903809308030E94A5208091E3
:105650001E0390910D03892380931E0380911203F2
:1056600090911303429690931303809312030C942A
:10567000923320910B03203811F420911D0333271E
:1056800027FD309530930503209304038091140384
:1056900090911503820F931F909309038093080341
:1056A0000E94A52080911E0390910D038923809371
:1056B0001E0380911203909113034296909313035B
:1056C000809312030C94923380911E0390910B03EC
:1056D000892380931E0380911203909113030A96ED
:1056E00090931303809312030C94923320910B0335
:1056F000203811F420911D03332727FD3095309376
:1057000005032093040327FF0AC08091180390919A
:105710001903820F931F90931903809318038091AC
:1057200018039091190390930903809308030E9432
:10573000A52080911E0390910D03892380931E0361
:10574000209104033091050327FD0AC080911803BE
:1057500090911903820F931F90931903809318035C
:1057600080911203909113034296909313038093B8
:105770001203D8C720910B03203811F420911D0388
:10578000332727FD3095309305032093040327FF2B
:105790000AC08091160390911703820F931F909374
:1057A000170380931603809116039091170390932B
:1057B0000903809308030E94A52080911E03909105
:1057C0000D03892380931E03209104033091050368
:1057D00027FD0AC08091160390911703820F931F33
:1057E00090931703809316038091120390911303F3
:1057F0004296909313038093120394C720910B0356
:10580000203811F420911D03332727FD3095309364
:1058100005032093040327FF0AC08091140390918D
:105820001503820F931F90931503809314038091A7
:1058300014039091150390930903809308030E9429
:10584000A52080911E0390910D03892380931E0350
:10585000209104033091050327FD0AC080911403B1
:1058600090911503820F931F909315038093140357
:1058700080911203909113034296909313038093A7
:10588000120350C720910B03203811F420911D03FF
:10589000332727FD3095309305032093040380912F
:1058A0001A0390911B03820F931F90930903809317
:1058B00008030E94A52080911E0390910D03892B5F
:1058C00080931E038091120390911303429690934C
:1058D00013038093120326C720910B03203811F481
:1058E00020911D03332727FD309530930503209326
:1058F00004038091180390911903820F931F9093D2
:105900000903809308030E94A52080911E039091B3
:105910000D03892B80931E03809112039091130332
:1059200042969093130380931203FCC620910B03BD
:10593000203811F420911D03332727FD3095309333
:105940000503209304038091160390911703820F9F
:10595000931F90930903809308030E94A5208091D0
:105960001E0390910D03892B80931E0380911203D7
:105970009091130342969093130380931203D2C61F
:1059800020910B03203811F420911D03332727FDAC
:105990003095309305032093040380911403909174
:1059A0001503820F931F90930903809308030E94AD
:1059B000A52080911E0390910D03892B80931E03D7
:1059C0008091120390911303429690931303809356
:1059D0001203A8C680911E0390910B03892B80931C
:1059E0001E0380911203909113030A969093130360
:1059F0008093120397C620910B03203811F4209155
:105A00001D03332727FD30953093050320930403AE
:105A100027FF0AC08091180390911903820F931FEA
:105A200090931903809318038091180390911903A0
:105A300090930903809308030E94A52080911E0380
:105A400090910D03892B80931E03209104033091C4
:105A5000050327FD0AC08091180390911903820F56
:105A6000931F9093190380931803809112039091D0
:105A700013034296909313038093120353C620910D
:105A80000B03203811F420911D03332727FD309597
:105A9000309305032093040327FF0AC08091160367
:105AA00090911703820F931F90931703809316030F
:105AB0008091160390911703909309038093080334
:105AC0000E94A52080911E0390910D03892B809345
:105AD0001E03209104033091050327FD0AC0809125
:105AE000160390911703820F931F909317038093CF
:105AF000160380911203909113034296909313031F
:105B0000809312030FC620910B03203811F42091CB
:105B10001D03332727FD309530930503209304039D
:105B200027FF0AC08091140390911503820F931FE1
:105B3000909315038093140380911403909115039F
:105B400090930903809308030E94A52080911E036F
:105B500090910D03892B80931E03209104033091B3
:105B6000050327FD0AC08091140390911503820F4D
:105B7000931F9093150380931403809112039091C7
:105B8000130342969093130380931203CBC5209185
:105B90000B03203811F420911D03332727FD309586
:105BA000309305032093040380911A0390911B0303
:105BB000820F931F90930903809308030E94A520EE
:105BC00080911E0390910D03892780931E0380917D
:105BD0001203909113034296909313038093120340
:105BE000A1C520910B03203811F420911D03332708
:105BF00027FD30953093050320930403809118030B
:105C000090911903820F931F9093090380930803C7
:105C10000E94A52080911E0390910D0389278093F7
:105C20001E038091120390911303429690931303E5
:105C30008093120377C520910B03203811F4209133
:105C40001D03332727FD309530930503209304036C
:105C50008091160390911703820F931F909309036D
:105C6000809308030E94A52080911E0390910D034C
:105C7000892780931E03809112039091130342960B
:105C800090931303809312034DC520910B0320388A
:105C900011F420911D03332727FD30953093050320
:105CA000209304038091140390911503820F931F96
:105CB00090930903809308030E94A52080911E03FE
:105CC00090910D03892780931E0380911203909178
:105CD00013034296909313038093120323C580917C
:105CE0001E0390910B03892780931E03809112035A
:105CF000909113030A96909313038093120312C595
:105D000020910B03203811F420911D03332727FD28
:105D10003095309305032093040327FF0AC0809138
:105D2000180390911903820F931F90931903809386
:105D3000180380911803909119039093090380939D
:105D400008030E94A52080911E0390910D038927CE
:105D500080931E03209104033091050327FD0AC0A0
:105D60008091180390911903820F931F9093190348
:105D7000809318038091120390911303429690939D
:105D8000130380931203CEC420910B03203811F427
:105D900020911D03332727FD309530930503209371
:105DA000040327FF0AC08091160390911703820F06
:105DB000931F90931703809316038091160390917D
:105DC000170390930903809308030E94A5208091F4
:105DD0001E0390910D03892780931E0320910403D5
:105DE0003091050327FD0AC0809116039091170397
:105DF000820F931F909317038093160380911203D1
:105E000090911303429690931303809312038AC4D4
:105E100020910B03203811F420911D03332727FD17
:105E20003095309305032093040327FF0AC0809127
:105E3000140390911503820F931F90931503809381
:105E40001403809114039091150390930903809398
:105E500008030E94A52080911E0390910D038927BD
:105E600080931E03209104033091050327FD0AC08F
:105E70008091140390911503820F931F9093150343
:105E80008093140380911203909113034296909390
:105E900013038093120346C420910B03203811F49E
:105EA00020911D03332727FD309530930503209360
:105EB000040380911A0390911B03820F931F909308
:105EC0000903809308030E94A5200E94502080911E
:105ED0001203909113034796909313038093120338
:105EE00021C420910B03203811F420911D03332786
:105EF00027FD309530930503209304038091180308
:105F000090911903820F931F9093090380930803C4
:105F10000E94A5200E9450208091120390911303AB
:105F200047969093130380931203FCC320910B03B5
:105F3000203811F420911D03332727FD309530932D
:105F40000503209304038091160390911703820F99
:105F5000931F90930903809308030E94A5200E9439
:105F6000502080911203909113034796909313034E
:105F700080931203D7C320910B03203811F4209192
:105F80001D03332727FD3095309305032093040329
:105F90008091140390911503820F931F909309032E
:105FA000809308030E94A5200E9450208091120334
:105FB0009091130347969093130380931203B2C3F7
:105FC00080910B0380930D030E9450208091120357
:105FD000909113030F969093130380931203A2C31F
:105FE00020910B03203811F420911D03332727FD46
:105FF0003095309305032093040327FF0AC0809156
:10600000180390911903820F931F909319038093A3
:1060100018038091180390911903909309038093BA
:1060200008030E94A5200E94502020910403309173
:10603000050327FD0AC08091180390911903820F70
:10604000931F9093190380931803809112039091EA
:1060500013034796909313038093120363C3209115
:106060000B03203811F420911D03332727FD3095B1
:10607000309305032093040327FF0AC08091160381
:1060800090911703820F931F909317038093160329
:10609000809116039091170390930903809308034E
:1060A0000E94A5200E9450202091040330910503F6
:1060B00027FD0AC08091160390911703820F931F4A
:1060C000909317038093160380911203909113030A
:1060D0004796909313038093120324C320910B03DC
:1060E000203811F420911D03332727FD309530937C
:1060F00005032093040327FF0AC0809114039091A5
:106100001503820F931F90931503809314038091BE
:1061100014039091150390930903809308030E9440
:10612000A5200E945020209104033091050327FDF3
:106130000AC08091140390911503820F931F9093CE
:1061400015038093140380911203909113034796D3
:106150009093130380931203E5C220910B03203820
:1061600011F420911D03332727FD3095309305034B
:106170002093040380911A0390911B03820F931FB5
:1061800090930903809308030E94A5200E942B206E
:10619000809112039091130343969093130380937D
:1061A0001203C0C220910B03203811F420911D036B
:1061B000332727FD30953093050320930403809106
:1061C000180390911903820F931F909309038093F2
:1061D00008030E94A5200E942B2080911203909119
:1061E0001303439690931303809312039BC2209151
:1061F0000B03203811F420911D03332727FD309520
:1062000030930503209304038091160390911703A4
:10621000820F931F90930903809308030E94A52087
:106220000E942B2080911203909113034396909328
:1062300013038093120376C220910B03203811F4CC
:1062400020911D03332727FD3095309305032093BC
:1062500004038091140390911503820F931F909370
:106260000903809308030E94A5200E942B2080919F
:106270001203909113034396909313038093120398
:1062800051C280910B0380930D030E942B208091BB
:106290001203909113030B969093130380931203B0
:1062A00041C220910B03203811F420911D033327A4
:1062B00027FD3095309305032093040327FF0AC080
:1062C0008091180390911903820F931F90931903E3
:1062D00080931803809118039091190390930903F8
:1062E000809308030E94A5200E942B202091040384
:1062F0003091050327FD0AC080911803909119037E
:10630000820F931F909319038093180380911203B7
